C51 COMPILER V9.53.0.0   QSFPDD_MSA_DDMI                                                   01/02/2020 08:52:00 PAGE 1   


C51 COMPILER V9.53.0.0, COMPILATION OF MODULE QSFPDD_MSA_DDMI
OBJECT MODULE PLACED IN .\QSFPDD_CMIS30\QSFPDD_MSA_DDMI.OBJ
COMPILER INVOKED BY: c:\SiliconLabs\SimplicityStudio\v4\developer\toolchains\keil_8051\9.53\BIN\C51.exe D:\Luxshare_OET\
                    -公司專案_FW\OSFP_400G_DSP\FW\V0300_CMIS30\OET_OSFP_400G_DSP_TL_MACOM_CMIS30\QSFPDD_CMIS30\QSFPDD_MSA_DDMI.c OMF2 SMALL D
                    -EBUG OBJECTEXTEND ROM(LARGE) WARNINGLEVEL(2) FLOATFUZZY(3) OPTIMIZE(8,SPEED) DEFINE(DEBUG=1) INTVECTOR(0X0000) INTPROMOT
                    -E INCDIR(D:\Luxshare_OET\公司專案_FW\OSFP_400G_DSP\FW\V0300_CMIS30\OET_OSFP_400G_DSP_TL_MACOM_CMIS30\inc;C:/SiliconLabs/
                    -SimplicityStudio/v4/developer/sdks/8051/v4.0.7//Device/shared/si8051base;C:/SiliconLabs/SimplicityStudio/v4/developer/sd
                    -ks/8051/v4.0.7//Device/EFM8LB1/inc) PRINT(.\QSFPDD_CMIS30\QSFPDD_MSA_DDMI.lst) COND PAGEWIDTH(120) PAGELENGTH(65) OBJECT
                    -(.\QSFPDD_CMIS30\QSFPDD_MSA_DDMI.OBJ)

line level    source

   1          /*
   2           * QSFPDD_MSA_DDMI.c
   3           *
   4           *  Created on: 2017年11月9日
   5           *      Author: Ivan_Lin
   6           */
   7          #include <SI_EFM8LB1_Register_Enums.h>                  // SFR declarations
   8          #include <stdint.h>
   9          #include <Master_I2C_GPIO.h>
  10          #include "MA38435_TX1_TX4.h"
  11          #include "MA38435_TX5_TX8.h"
  12          #include "MA38434_RX1_RX4.h"
  13          #include "MA38434_RX5_RX8.h"
  14          
  15          #include "MSA_QSFPDD.h"
  16          #include "Calibration_Struct.h"
  17          #include "Calibration_Struct_2.h"
  18          #include "EFM8LB_ADC.h"
  19          
  20          #define ADC_SM            0
  21          #define RXP_CH0           1
  22          #define RXP_CH1           2
  23          #define RXP_CH2           3
  24          #define RXP_CH3           4
  25          #define RXP_CH4           5
  26          #define RXP_CH5           6
  27          #define RXP_CH6           7
  28          #define RXP_CH7           8
  29          #define TXB_TXP_0_SM      9
  30          #define TXB_TXP_1_SM     10
  31          #define TXB_TXP_2_SM     11
  32          #define TXB_TXP_3_SM     12
  33          #define TXB_TXP_4_SM     13
  34          #define TXB_TXP_5_SM     14
  35          #define TXB_TXP_6_SM     15
  36          #define TXB_TXP_7_SM     16
  37          #define OP_SM            17
  38          #define TXLOLLOS         18
  39          #define RXLOLLOS         19
  40          #define Other_DDMI       20
  41          
  42          #define RSSI_ADC_CH      ADC0MX_ADC0MX__ADC0P19
  43          #define V1V8_TX_CH       ADC0MX_ADC0MX__ADC0P17
  44          #define V1V8_RX_CH       ADC0MX_ADC0MX__ADC0P16
  45          #define VCC_RX_CH        ADC0MX_ADC0MX__ADC0P15
  46          #define VCC_TX_CH        ADC0MX_ADC0MX__ADC0P13
  47          #define VCC_MCU_CH       ADC0MX_ADC0MX__VDD
  48          #define IBisa_MON_CH     ADC0MX_ADC0MX__ADC0P6
  49          
  50          #define SHOW_RSSI_Enable   1
C51 COMPILER V9.53.0.0   QSFPDD_MSA_DDMI                                                   01/02/2020 08:52:00 PAGE 2   

  51          #define SHOW_RSSI_Disable  0
  52          
  53          xdata unsigned char SHOW_RSSI_CH0 = 1 ;
  54          xdata unsigned char SHOW_RSSI_CH1 = 1 ;
  55          xdata unsigned char SHOW_RSSI_CH2 = 1 ;
  56          xdata unsigned char SHOW_RSSI_CH3 = 1 ;
  57          xdata unsigned char SHOW_RSSI_CH4 = 1 ;
  58          xdata unsigned char SHOW_RSSI_CH5 = 1 ;
  59          xdata unsigned char SHOW_RSSI_CH6 = 1 ;
  60          xdata unsigned char SHOW_RSSI_CH7 = 1 ;
  61          
  62          xdata char Temperature_Indx = 0 ;
  63          
  64          xdata unsigned char Bef_ForceMute_CH0_CH3 = 0 ;
  65          xdata unsigned char Bef_ForceMute_CH4_CH7 = 0 ;
  66          
  67          xdata unsigned int Bias_Current_CH0,Bias_Current_CH1,Bias_Current_CH2,Bias_Current_CH3;
  68          xdata unsigned int Bias_Current_CH4,Bias_Current_CH5,Bias_Current_CH6,Bias_Current_CH7;
  69          
  70          extern xdata unsigned char Power_on_flag;
  71          
  72          
  73          int Temp_CAL( int Vaule , unsigned char Slop , unsigned char Shift , int Offset)
  74          {
  75   1              long Buffer_temp ;
  76   1      
  77   1              Buffer_temp = (long)Vaule * Slop ;
  78   1              Buffer_temp = (long)Buffer_temp >> Shift ;
  79   1      
  80   1              Vaule = (long)Buffer_temp + Offset * 256 ;
  81   1      
  82   1          return Vaule ;
  83   1      }
  84          
  85          unsigned int CAL_Function( unsigned int Vaule , unsigned char Slop , unsigned char Shift , int Offset )
  86          {
  87   1              long Buffer_temp ;
  88   1      
  89   1              Buffer_temp = (long)Vaule * Slop ;
  90   1              Buffer_temp = (long)Buffer_temp >> Shift ;
  91   1      
  92   1              Vaule = (long)Buffer_temp + Offset;
  93   1      
  94   1              return Vaule;
  95   1      }
  96          
  97          void Temperature_Monitor(int tempsensor_value)
  98          {
  99   1              int Temp_Buffer;
 100   1              char Indx_Temp ;
 101   1      
 102   1              Temp_Buffer = tempsensor_value ;
 103   1      
 104   1              Temp_Buffer = Temp_CAL(tempsensor_value,CALIB_MEMORY_MAP.TEMP_SCALE1M,CALIB_MEMORY_MAP.TEMP_SCALE1L,CALIB
             -_MEMORY_MAP.TEMP_OFFSET1);
 105   1      
 106   1              QSFPDD_A0[14] = Temp_Buffer >> 8 ;
 107   1              QSFPDD_A0[15] = Temp_Buffer ;
 108   1      
 109   1              Indx_Temp = QSFPDD_A0[14];
 110   1      
 111   1              Temperature_Indx = ( Indx_Temp+40 )/2 ;
 112   1              if(Indx_Temp > 64) Indx_Temp = 64;
C51 COMPILER V9.53.0.0   QSFPDD_MSA_DDMI                                                   01/02/2020 08:52:00 PAGE 3   

 113   1      }
 114          
 115          void VCC_Monitor(unsigned int VCC_Vaule)
 116          {
 117   1              VCC_Vaule = CAL_Function( VCC_Vaule , CALIB_MEMORY_MAP.VCC_SCALEM , CALIB_MEMORY_MAP.VCC_SCALEL , CALIB_M
             -EMORY_MAP.VCC_OFFSET ) ;
 118   1      
 119   1              QSFPDD_A0[16] = VCC_Vaule >> 8 ;
 120   1              QSFPDD_A0[17] = VCC_Vaule ;
 121   1      }
 122          
 123          void BIAS_TxPower_Monitor(unsigned char Channel)
 124          {
 125   1              unsigned int MOD_Temp_Buffer = 0;
 126   1              unsigned int TXP_BUFFER = 0 ;
 127   1      
 128   1              switch(Channel)
 129   1              {
 130   2                      case 0:
 131   2                                      Bias_Current_CH0 = TXBIAS_TX1_TX4(0x00) ;
 132   2                                      TXP_BUFFER = Bias_Current_CH0 ;
 133   2      
 134   2                                      Bias_Current_CH0 = CAL_Function( Bias_Current_CH0 , CALIB_MEMORY_MAP.IBias0_SCALEM , CALIB_MEMORY_MAP.
             -IBias0_SCALE1L , CALIB_MEMORY_MAP.IBias0_OFFSET ) ;
 135   2                                      TXP_BUFFER = CAL_Function( TXP_BUFFER , CALIB_MEMORY_MAP.TXP0_SCALEM , CALIB_MEMORY_MAP.TXP0_SCALEL , 
             -CALIB_MEMORY_MAP.TXP0_OFFSET ) ;
 136   2      
 137   2                                      if( QSFPDD_Page10[2] & 0x01 ) //|| ( LPMODE_STATUS == 1 )  )
 138   2                                      {
 139   3                                              QSFPDD_Page11[42] = 0 ;
 140   3                                              QSFPDD_Page11[43] = 0 ;
 141   3                                              // CH0  Tx Power
 142   3                                              QSFPDD_Page11[26] = 0 ;
 143   3                                              QSFPDD_Page11[27] = 0 ;
 144   3      
 145   3                                              // Alarm & Waring trigger
 146   3                                              QSFPDD_Page11[12] |= 0x01 ;
 147   3                                              QSFPDD_Page11[14] |= 0x01 ;
 148   3                                              QSFPDD_Page11[16] |= 0x01 ;
 149   3                                              QSFPDD_Page11[18] |= 0x01 ;
 150   3                                      }
 151   2                                      else
 152   2                                      {
 153   3                                              QSFPDD_Page11[42] = Bias_Current_CH0 >> 8 ;
 154   3                                              QSFPDD_Page11[43] = Bias_Current_CH0 ;
 155   3                                              // CH0 TxPower
 156   3                                              QSFPDD_Page11[26] = TXP_BUFFER >> 8 ;
 157   3                                              QSFPDD_Page11[27] = TXP_BUFFER ;
 158   3                                      }
 159   2                                      break;
 160   2                      case 1:
 161   2                                      Bias_Current_CH1 = TXBIAS_TX1_TX4(0x20) ;
 162   2                                      TXP_BUFFER = Bias_Current_CH1 ;
 163   2      
 164   2                                      Bias_Current_CH1 = CAL_Function( Bias_Current_CH1 , CALIB_MEMORY_MAP.IBias1_SCALEM , CALIB_MEMORY_MAP.
             -IBias1_SCALE1L , CALIB_MEMORY_MAP.IBias1_OFFSET ) ;
 165   2                                      TXP_BUFFER = CAL_Function( TXP_BUFFER , CALIB_MEMORY_MAP.TXP1_SCALEM , CALIB_MEMORY_MAP.TXP1_SCALEL , 
             -CALIB_MEMORY_MAP.TXP1_OFFSET ) ;
 166   2      
 167   2                                      if( QSFPDD_Page10[2] & 0x02 ) //|| ( LPMODE_STATUS == 1 )  )
 168   2                                      {
 169   3                                              QSFPDD_Page11[44] = 0 ;
 170   3                                              QSFPDD_Page11[45] = 0 ;
C51 COMPILER V9.53.0.0   QSFPDD_MSA_DDMI                                                   01/02/2020 08:52:00 PAGE 4   

 171   3                                              // CH1  Tx Power
 172   3                                              QSFPDD_Page11[28] = 0 ;
 173   3                                              QSFPDD_Page11[29] = 0 ;
 174   3      
 175   3                                              // Alarm & Waring trigger
 176   3                                              QSFPDD_Page11[12] |= 0x02 ;
 177   3                                              QSFPDD_Page11[14] |= 0x02 ;
 178   3                                              QSFPDD_Page11[16] |= 0x02 ;
 179   3                                              QSFPDD_Page11[18] |= 0x02 ;
 180   3                                      }
 181   2                                      else
 182   2                                      {
 183   3                                              QSFPDD_Page11[44] = Bias_Current_CH1 >> 8 ;
 184   3                                              QSFPDD_Page11[45] = Bias_Current_CH1 ;
 185   3                                              // CH1  Tx Power
 186   3                                              QSFPDD_Page11[28] = TXP_BUFFER >> 8 ;
 187   3                                              QSFPDD_Page11[29] = TXP_BUFFER ;
 188   3                                      }
 189   2                                      break;
 190   2                      case 2:
 191   2                                      Bias_Current_CH2 = TXBIAS_TX1_TX4(0x40) ;
 192   2                                      TXP_BUFFER = Bias_Current_CH2 ;
 193   2      
 194   2                                      Bias_Current_CH2 = CAL_Function( Bias_Current_CH2 , CALIB_MEMORY_MAP.IBias2_SCALEM , CALIB_MEMORY_MAP.
             -IBias2_SCALE1L , CALIB_MEMORY_MAP.IBias2_OFFSET ) ;
 195   2                                      TXP_BUFFER = CAL_Function( TXP_BUFFER , CALIB_MEMORY_MAP.TXP2_SCALEM , CALIB_MEMORY_MAP.TXP2_SCALEL , 
             -CALIB_MEMORY_MAP.TXP2_OFFSET ) ;
 196   2      
 197   2                                      if( QSFPDD_Page10[2] & 0x04 )// || ( LPMODE_STATUS == 1 )  )
 198   2                                      {
 199   3                                              QSFPDD_Page11[46] = 0 ;
 200   3                                              QSFPDD_Page11[47] = 0 ;
 201   3                                              // CH2  Tx Power
 202   3                                              QSFPDD_Page11[30] = 0 ;
 203   3                                              QSFPDD_Page11[31] = 0 ;
 204   3      
 205   3                                              // Alarm & Waring trigger
 206   3                                              QSFPDD_Page11[12] |= 0x04 ;
 207   3                                              QSFPDD_Page11[14] |= 0x04 ;
 208   3                                              QSFPDD_Page11[16] |= 0x04 ;
 209   3                                              QSFPDD_Page11[18] |= 0x04 ;
 210   3                                      }
 211   2                                      else
 212   2                                      {
 213   3                                              QSFPDD_Page11[46] = Bias_Current_CH2 >> 8 ;
 214   3                                              QSFPDD_Page11[47] = Bias_Current_CH2 ;
 215   3                                              // CH2  Tx Power
 216   3                                              QSFPDD_Page11[30] = TXP_BUFFER >> 8 ;
 217   3                                              QSFPDD_Page11[31] = TXP_BUFFER ;
 218   3                                      }
 219   2                                  break;
 220   2                      case 3:
 221   2                                      Bias_Current_CH3 = TXBIAS_TX1_TX4(0x60) ;
 222   2                                      TXP_BUFFER = Bias_Current_CH3 ;
 223   2      
 224   2                                      Bias_Current_CH3 = CAL_Function( Bias_Current_CH3 , CALIB_MEMORY_MAP.IBias3_SCALEM , CALIB_MEMORY_MAP.
             -IBias3_SCALE1L , CALIB_MEMORY_MAP.IBias3_OFFSET ) ;
 225   2                                      TXP_BUFFER = CAL_Function( TXP_BUFFER , CALIB_MEMORY_MAP.TXP3_SCALEM , CALIB_MEMORY_MAP.TXP3_SCALEL , 
             -CALIB_MEMORY_MAP.TXP3_OFFSET ) ;
 226   2      
 227   2                                      if( QSFPDD_Page10[2] & 0x08 ) //|| ( LPMODE_STATUS == 1 )  )
 228   2                                      {
 229   3                                              QSFPDD_Page11[48] = 0 ;
C51 COMPILER V9.53.0.0   QSFPDD_MSA_DDMI                                                   01/02/2020 08:52:00 PAGE 5   

 230   3                                              QSFPDD_Page11[49] = 0 ;
 231   3                                              // CH3  Tx Power
 232   3                                              QSFPDD_Page11[32] = 0 ;
 233   3                                              QSFPDD_Page11[33] = 0 ;
 234   3      
 235   3                                              // Alarm & Waring trigger
 236   3                                              QSFPDD_Page11[12] |= 0x08 ;
 237   3                                              QSFPDD_Page11[14] |= 0x08 ;
 238   3                                              QSFPDD_Page11[16] |= 0x08 ;
 239   3                                              QSFPDD_Page11[18] |= 0x08 ;
 240   3                                      }
 241   2                                      else
 242   2                                      {
 243   3                                              QSFPDD_Page11[48] = Bias_Current_CH3 >> 8 ;
 244   3                                              QSFPDD_Page11[49] = Bias_Current_CH3 ;
 245   3                                              // CH3  Tx Power
 246   3                                              QSFPDD_Page11[32] = TXP_BUFFER >> 8 ;
 247   3                                              QSFPDD_Page11[33] = TXP_BUFFER ;
 248   3                                      }
 249   2                                      break;
 250   2                      case 4:
 251   2                                  // HW Tx CH7
 252   2                                      Bias_Current_CH4 = TXBIAS_TX5_TX8(0x00);
 253   2                                      TXP_BUFFER = Bias_Current_CH4 ;
 254   2      
 255   2                                      Bias_Current_CH4 = CAL_Function( Bias_Current_CH4 , CALIB_MEMORY_1_MAP.IBias4_SCALEM , CALIB_MEMORY_1_
             -MAP.IBias4_SCALE1L , CALIB_MEMORY_1_MAP.IBias4_OFFSET ) ;
 256   2                                      TXP_BUFFER = CAL_Function( TXP_BUFFER , CALIB_MEMORY_1_MAP.TXP4_SCALEM , CALIB_MEMORY_1_MAP.TXP4_SCALE
             -L , CALIB_MEMORY_1_MAP.TXP4_OFFSET ) ;
 257   2      
 258   2                                      if( QSFPDD_Page10[2] & 0x10 ) //|| ( LPMODE_STATUS == 1 )  )
 259   2                                      {
 260   3                                              QSFPDD_Page11[50] = 0 ;
 261   3                                              QSFPDD_Page11[51] = 0 ;
 262   3                                              // CH4  Tx Power
 263   3                                              QSFPDD_Page11[34] = 0 ;
 264   3                                              QSFPDD_Page11[35] = 0 ;
 265   3      
 266   3                                              // Alarm & Waring trigger
 267   3                                              QSFPDD_Page11[12] |= 0x10 ;
 268   3                                              QSFPDD_Page11[14] |= 0x10 ;
 269   3                                              QSFPDD_Page11[16] |= 0x10 ;
 270   3                                              QSFPDD_Page11[18] |= 0x10 ;
 271   3                                      }
 272   2                                      else
 273   2                                      {
 274   3                                              QSFPDD_Page11[50] = Bias_Current_CH4 >> 8 ;
 275   3                                              QSFPDD_Page11[51] = Bias_Current_CH4 ;
 276   3                                              // CH4  Tx Power
 277   3                                              QSFPDD_Page11[34] = TXP_BUFFER >> 8 ;
 278   3                                              QSFPDD_Page11[35] = TXP_BUFFER ;
 279   3                                      }
 280   2                                      break;
 281   2                      case 5:
 282   2                                      // HW Tx CH6
 283   2                                      Bias_Current_CH5 = TXBIAS_TX5_TX8(0x20);
 284   2                                      TXP_BUFFER = Bias_Current_CH5 ;
 285   2      
 286   2                                      Bias_Current_CH5 = CAL_Function( Bias_Current_CH5 , CALIB_MEMORY_1_MAP.IBias5_SCALEM , CALIB_MEMORY_1_
             -MAP.IBias5_SCALE1L , CALIB_MEMORY_1_MAP.IBias5_OFFSET ) ;
 287   2                                      TXP_BUFFER = CAL_Function( TXP_BUFFER , CALIB_MEMORY_1_MAP.TXP5_SCALEM , CALIB_MEMORY_1_MAP.TXP5_SCALE
             -L , CALIB_MEMORY_1_MAP.TXP5_OFFSET ) ;
 288   2      
C51 COMPILER V9.53.0.0   QSFPDD_MSA_DDMI                                                   01/02/2020 08:52:00 PAGE 6   

 289   2                                      if( QSFPDD_Page10[2] & 0x20 ) //|| ( LPMODE_STATUS == 1 )  )
 290   2                                      {
 291   3                                              QSFPDD_Page11[52] = 0 ;
 292   3                                              QSFPDD_Page11[53] = 0 ;
 293   3                                              // CH5  Tx Power
 294   3                                              QSFPDD_Page11[36] = 0 ;
 295   3                                              QSFPDD_Page11[37] = 0 ;
 296   3                                              // Alarm & Waring trigger
 297   3                                              QSFPDD_Page11[12] |= 0x20 ;
 298   3                                              QSFPDD_Page11[14] |= 0x20 ;
 299   3                                              QSFPDD_Page11[16] |= 0x20 ;
 300   3                                              QSFPDD_Page11[18] |= 0x20 ;
 301   3                                      }
 302   2                                      else
 303   2                                      {
 304   3                                              QSFPDD_Page11[52] = Bias_Current_CH5 >> 8 ;
 305   3                                              QSFPDD_Page11[53] = Bias_Current_CH5 ;
 306   3                                              // CH5  Tx Power
 307   3                                              QSFPDD_Page11[36] = TXP_BUFFER >> 8 ;
 308   3                                              QSFPDD_Page11[37] = TXP_BUFFER ;
 309   3                                      }
 310   2                                      break;
 311   2                      case 6:
 312   2                                      // HW Tx CH5
 313   2                                      Bias_Current_CH6 = TXBIAS_TX5_TX8(0x40);
 314   2                                      TXP_BUFFER = Bias_Current_CH6 ;
 315   2      
 316   2                                      Bias_Current_CH6 = CAL_Function( Bias_Current_CH6 , CALIB_MEMORY_1_MAP.IBias6_SCALEM , CALIB_MEMORY_1_
             -MAP.IBias6_SCALE1L , CALIB_MEMORY_1_MAP.IBias6_OFFSET ) ;
 317   2                                      TXP_BUFFER = CAL_Function( TXP_BUFFER , CALIB_MEMORY_1_MAP.TXP6_SCALEM , CALIB_MEMORY_1_MAP.TXP6_SCALE
             -L , CALIB_MEMORY_1_MAP.TXP6_OFFSET ) ;
 318   2      
 319   2                                      if( QSFPDD_Page10[2] & 0x40 ) //|| ( LPMODE_STATUS == 1 )  )
 320   2                                      {
 321   3                                              QSFPDD_Page11[54] = 0 ;
 322   3                                              QSFPDD_Page11[55] = 0 ;
 323   3                                              // CH6  Tx Powee
 324   3                                              QSFPDD_Page11[38] = 0 ;
 325   3                                              QSFPDD_Page11[39] = 0 ;
 326   3                                              // Alarm & Waring trigger
 327   3                                              QSFPDD_Page11[12] |= 0x40 ;
 328   3                                              QSFPDD_Page11[14] |= 0x40 ;
 329   3                                              QSFPDD_Page11[16] |= 0x40 ;
 330   3                                              QSFPDD_Page11[18] |= 0x40 ;
 331   3                                      }
 332   2                                      else
 333   2                                      {
 334   3                                              QSFPDD_Page11[54] = Bias_Current_CH6 >> 8 ;
 335   3                                              QSFPDD_Page11[55] = Bias_Current_CH6 ;
 336   3                                              // CH6  Tx Power
 337   3                                              QSFPDD_Page11[38] = TXP_BUFFER >> 8 ;
 338   3                                              QSFPDD_Page11[39] = TXP_BUFFER ;
 339   3                                      }
 340   2                                      break;
 341   2                      case 7:
 342   2                                      // HW Tx CH4
 343   2                                      Bias_Current_CH7 = TXBIAS_TX5_TX8(0x60);
 344   2                                      TXP_BUFFER = Bias_Current_CH7 ;
 345   2      
 346   2                                      Bias_Current_CH7 = CAL_Function( Bias_Current_CH7 , CALIB_MEMORY_1_MAP.IBias7_SCALEM , CALIB_MEMORY_1_
             -MAP.IBias7_SCALE1L , CALIB_MEMORY_1_MAP.IBias7_OFFSET ) ;
 347   2                                      TXP_BUFFER = CAL_Function( TXP_BUFFER , CALIB_MEMORY_1_MAP.TXP7_SCALEM , CALIB_MEMORY_1_MAP.TXP7_SCALE
             -L , CALIB_MEMORY_1_MAP.TXP7_OFFSET ) ;
C51 COMPILER V9.53.0.0   QSFPDD_MSA_DDMI                                                   01/02/2020 08:52:00 PAGE 7   

 348   2      
 349   2                                      if( QSFPDD_Page10[2] & 0x80 ) //|| ( LPMODE_STATUS == 1 )  )
 350   2                                      {
 351   3                                              QSFPDD_Page11[56] = 0 ;
 352   3                                              QSFPDD_Page11[57] = 0 ;
 353   3                                              // CH7  Tx Power
 354   3                                              QSFPDD_Page11[40] = 0 ;
 355   3                                              QSFPDD_Page11[41] = 0 ;
 356   3                                              // Alarm & Waring trigger
 357   3                                              QSFPDD_Page11[12] |= 0x80 ;
 358   3                                              QSFPDD_Page11[14] |= 0x80 ;
 359   3                                              QSFPDD_Page11[16] |= 0x80 ;
 360   3                                              QSFPDD_Page11[18] |= 0x80 ;
 361   3                                      }
 362   2                                      else
 363   2                                      {
 364   3                                              QSFPDD_Page11[56] = Bias_Current_CH7 >> 8 ;
 365   3                                              QSFPDD_Page11[57] = Bias_Current_CH7 ;
 366   3                                              // CH7  Tx Power
 367   3                                              QSFPDD_Page11[40] = TXP_BUFFER >> 8 ;
 368   3                                              QSFPDD_Page11[41] = TXP_BUFFER ;
 369   3                                      }
 370   2                                      break;
 371   2                      default:
 372   2                                      break;
 373   2              }
 374   1      
 375   1      }
 376          
 377          void RX_POWER_M_CH0_CH7(unsigned char Rx_CH)
 378          {
 379   1              unsigned int RX_POWER_CH0,RX_POWER_CH1,RX_POWER_CH2,RX_POWER_CH3;
 380   1              unsigned int RX_POWER_CH4,RX_POWER_CH5,RX_POWER_CH6,RX_POWER_CH7;
 381   1      
 382   1              switch(Rx_CH)
 383   1              {
 384   2                      case 0:
 385   2                                  RX_POWER_CH0 = GET_RRSI_CH0_CH3( 3 );
 386   2                                  RX_POWER_CH0 = CAL_Function( RX_POWER_CH0 , CALIB_MEMORY_MAP.RX0_SCALEM , CALIB_MEMORY_MAP.RX0_SCAL
             -EL , CALIB_MEMORY_MAP.RX0_OFFSET );
 387   2                                  if(RX_POWER_CH0>0xF000)
 388   2                                      RX_POWER_CH0 = 0;
 389   2                                      // RX RSSI CH 0
 390   2                                      if( RX_POWER_CH0 < CALIB_MEMORY_MAP.Rx0_LOS_Assret )
 391   2                                              SHOW_RSSI_CH0 = SHOW_RSSI_Disable ;
 392   2      
 393   2                                      if ( RX_POWER_CH0 >= CALIB_MEMORY_MAP.Rx0_LOS_DeAssret )
 394   2                                              SHOW_RSSI_CH0 = SHOW_RSSI_Enable ;
 395   2      
 396   2                                      if( SHOW_RSSI_CH0 == SHOW_RSSI_Enable )
 397   2                                      {
 398   3                                              QSFPDD_Page11[58] = RX_POWER_CH0 >> 8 ;
 399   3                                              QSFPDD_Page11[59] = RX_POWER_CH0 ;
 400   3                                      }
 401   2                                      else
 402   2                                      {
 403   3                                              QSFPDD_Page11[58] = 0 ;
 404   3                                              QSFPDD_Page11[59] = 1 ;
 405   3                                      }
 406   2      
 407   2                                      break;
 408   2                      case 1:
 409   2                                  RX_POWER_CH1 = GET_RRSI_CH0_CH3( 2 );
C51 COMPILER V9.53.0.0   QSFPDD_MSA_DDMI                                                   01/02/2020 08:52:00 PAGE 8   

 410   2                                  RX_POWER_CH1 = CAL_Function( RX_POWER_CH1 , CALIB_MEMORY_MAP.RX1_SCALEM , CALIB_MEMORY_MAP.RX1_SCAL
             -EL , CALIB_MEMORY_MAP.RX1_OFFSET );
 411   2                                  if(RX_POWER_CH1>0xF000)
 412   2                                      RX_POWER_CH1 = 0;
 413   2                                      // RX RSSI CH 1
 414   2                                      if( RX_POWER_CH1 < CALIB_MEMORY_MAP.Rx1_LOS_Assret )
 415   2                                              SHOW_RSSI_CH1 = SHOW_RSSI_Disable;
 416   2      
 417   2                                      if( RX_POWER_CH1 >= CALIB_MEMORY_MAP.Rx1_LOS_DeAssret )
 418   2                                              SHOW_RSSI_CH1 = SHOW_RSSI_Enable;
 419   2      
 420   2                                      if( SHOW_RSSI_CH1 == SHOW_RSSI_Enable )
 421   2                                      {
 422   3                                              QSFPDD_Page11[60] = RX_POWER_CH1 >> 8 ;
 423   3                                              QSFPDD_Page11[61] = RX_POWER_CH1 ;
 424   3                                      }
 425   2                                      else
 426   2                                      {
 427   3                                              QSFPDD_Page11[60] = 0;
 428   3                                              QSFPDD_Page11[61] = 1 ;
 429   3                                      }
 430   2      
 431   2                                      break;
 432   2                      case 2:
 433   2                                      RX_POWER_CH2 = GET_RRSI_CH0_CH3( 1 );
 434   2                                      RX_POWER_CH2 = CAL_Function( RX_POWER_CH2 , CALIB_MEMORY_MAP.RX2_SCALEM , CALIB_MEMORY_MAP.RX2_SCALEL 
             -, CALIB_MEMORY_MAP.RX2_OFFSET );
 435   2                                      if(RX_POWER_CH2>0xF000)
 436   2                                              RX_POWER_CH2 = 0;
 437   2                                      // RX RSSI CH 2
 438   2                                      if( RX_POWER_CH2 < CALIB_MEMORY_MAP.Rx2_LOS_Assret )
 439   2                                              SHOW_RSSI_CH2 = SHOW_RSSI_Disable;
 440   2      
 441   2                                      if( RX_POWER_CH2 >= CALIB_MEMORY_MAP.Rx2_LOS_DeAssret )
 442   2                                              SHOW_RSSI_CH2 = SHOW_RSSI_Enable;
 443   2      
 444   2                                      if(SHOW_RSSI_CH2 == SHOW_RSSI_Enable)
 445   2                                      {
 446   3                                              QSFPDD_Page11[62] = RX_POWER_CH2 >> 8 ;
 447   3                                              QSFPDD_Page11[63] = RX_POWER_CH2 ;
 448   3                                      }
 449   2                                      else
 450   2                                      {
 451   3                                              QSFPDD_Page11[62] = 0;
 452   3                                              QSFPDD_Page11[63] = 1 ;
 453   3                                      }
 454   2      
 455   2                                      break;
 456   2                      case 3:
 457   2                                      RX_POWER_CH3 = GET_RRSI_CH0_CH3( 0 );
 458   2                                      RX_POWER_CH3 = CAL_Function( RX_POWER_CH3 , CALIB_MEMORY_MAP.RX3_SCALEM , CALIB_MEMORY_MAP.RX3_SCALEL 
             -, CALIB_MEMORY_MAP.RX3_OFFSET );
 459   2                                      if(RX_POWER_CH3>0xF000)
 460   2                                              RX_POWER_CH3 = 0;
 461   2                                      // RX RSSI CH 3
 462   2                                      if( RX_POWER_CH3 < CALIB_MEMORY_MAP.Rx3_LOS_Assret )
 463   2                                              SHOW_RSSI_CH3 = SHOW_RSSI_Disable;
 464   2      
 465   2                                      if( RX_POWER_CH3 >= CALIB_MEMORY_MAP.Rx3_LOS_DeAssret )
 466   2                                              SHOW_RSSI_CH3 = SHOW_RSSI_Enable;
 467   2      
 468   2                                      if(SHOW_RSSI_CH3==SHOW_RSSI_Enable)
 469   2                                      {
C51 COMPILER V9.53.0.0   QSFPDD_MSA_DDMI                                                   01/02/2020 08:52:00 PAGE 9   

 470   3                                              QSFPDD_Page11[64] = RX_POWER_CH3 >> 8 ;
 471   3                                              QSFPDD_Page11[65] = RX_POWER_CH3 ;
 472   3                                      }
 473   2                                      else
 474   2                                      {
 475   3                                              QSFPDD_Page11[64] = 0;
 476   3                                              QSFPDD_Page11[65] = 1 ;
 477   3                                      }
 478   2                                      break;
 479   2                      case 4:
 480   2                                      RX_POWER_CH4 = GET_RRSI_CH4_CH7( 3 );
 481   2                                      RX_POWER_CH4 = CAL_Function( RX_POWER_CH4 , CALIB_MEMORY_1_MAP.RX4_SCALEM , CALIB_MEMORY_1_MAP.RX4_SCA
             -LEL , CALIB_MEMORY_1_MAP.RX4_OFFSET );
 482   2                                      if(RX_POWER_CH4>0xF000)
 483   2                                              RX_POWER_CH4 = 0;
 484   2                                      // RX RSSI CH 4
 485   2                                      if( RX_POWER_CH4 < CALIB_MEMORY_1_MAP.Rx4_LOS_Assret )
 486   2                                              SHOW_RSSI_CH4 = SHOW_RSSI_Disable;
 487   2      
 488   2                                      if( RX_POWER_CH4 >= CALIB_MEMORY_1_MAP.Rx4_LOS_DeAssret )
 489   2                                              SHOW_RSSI_CH4 = SHOW_RSSI_Enable;
 490   2      
 491   2                                      if(SHOW_RSSI_CH4 == SHOW_RSSI_Enable)
 492   2                                      {
 493   3                                              QSFPDD_Page11[66] = RX_POWER_CH4 >> 8 ;
 494   3                                              QSFPDD_Page11[67] = RX_POWER_CH4 ;
 495   3                                      }
 496   2                                      else
 497   2                                      {
 498   3                                              QSFPDD_Page11[66] = 0 ;
 499   3                                              QSFPDD_Page11[67] = 1 ;
 500   3                                      }
 501   2                                      break;
 502   2                      case 5:
 503   2                                      RX_POWER_CH5 = GET_RRSI_CH4_CH7( 2 );
 504   2                                      RX_POWER_CH5 = CAL_Function( RX_POWER_CH5 , CALIB_MEMORY_1_MAP.RX5_SCALEM , CALIB_MEMORY_1_MAP.RX5_SCA
             -LEL , CALIB_MEMORY_1_MAP.RX5_OFFSET );
 505   2                                      if(RX_POWER_CH5>0xF000)
 506   2                                              RX_POWER_CH5 = 0;
 507   2                                      // RX RSSI CH 5
 508   2                                      if( RX_POWER_CH5 < CALIB_MEMORY_1_MAP.Rx5_LOS_Assret )
 509   2                                              SHOW_RSSI_CH5 = SHOW_RSSI_Disable;
 510   2      
 511   2                                      if( RX_POWER_CH5 >= CALIB_MEMORY_1_MAP.Rx5_LOS_DeAssret )
 512   2                                              SHOW_RSSI_CH5 = SHOW_RSSI_Enable;
 513   2      
 514   2                                      if(SHOW_RSSI_CH5 == SHOW_RSSI_Enable)
 515   2                                      {
 516   3                                              QSFPDD_Page11[68] = RX_POWER_CH5 >> 8 ;
 517   3                                              QSFPDD_Page11[69] = RX_POWER_CH5 ;
 518   3                                      }
 519   2                                      else
 520   2                                      {
 521   3                                              QSFPDD_Page11[68] = 0;
 522   3                                              QSFPDD_Page11[69] = 1 ;
 523   3                                      }
 524   2      
 525   2                                      break;
 526   2                      case 6:
 527   2                                      RX_POWER_CH6 = GET_RRSI_CH4_CH7( 1 );
 528   2                                      RX_POWER_CH6 = CAL_Function( RX_POWER_CH6 , CALIB_MEMORY_1_MAP.RX6_SCALEM , CALIB_MEMORY_1_MAP.RX6_SCA
             -LEL , CALIB_MEMORY_1_MAP.RX6_OFFSET );
 529   2                                      if(RX_POWER_CH6>0xF000)
C51 COMPILER V9.53.0.0   QSFPDD_MSA_DDMI                                                   01/02/2020 08:52:00 PAGE 10  

 530   2                                              RX_POWER_CH6 = 0;
 531   2      
 532   2                                      // RX RSSI CH 6
 533   2                                      if( RX_POWER_CH6 < CALIB_MEMORY_1_MAP.Rx6_LOS_Assret )
 534   2                                              SHOW_RSSI_CH6 = SHOW_RSSI_Disable;
 535   2      
 536   2                                      if( RX_POWER_CH6 >= CALIB_MEMORY_1_MAP.Rx6_LOS_DeAssret )
 537   2                                              SHOW_RSSI_CH6 = SHOW_RSSI_Enable;
 538   2      
 539   2                                      if(SHOW_RSSI_CH6 == SHOW_RSSI_Enable)
 540   2                                      {
 541   3                                              QSFPDD_Page11[70] = RX_POWER_CH6 >> 8 ;
 542   3                                              QSFPDD_Page11[71] = RX_POWER_CH6 ;
 543   3                                      }
 544   2                                      else
 545   2                                      {
 546   3                                              QSFPDD_Page11[70] = 0;
 547   3                                              QSFPDD_Page11[71] = 1 ;
 548   3                                      }
 549   2      
 550   2                                      break;
 551   2                      case 7:
 552   2                                      RX_POWER_CH7 = GET_RRSI_CH4_CH7( 0 );
 553   2                                      RX_POWER_CH7 = CAL_Function( RX_POWER_CH7 , CALIB_MEMORY_1_MAP.RX7_SCALEM , CALIB_MEMORY_1_MAP.RX7_SCA
             -LEL , CALIB_MEMORY_1_MAP.RX7_OFFSET );
 554   2                                      if(RX_POWER_CH7>0xF000)
 555   2                                              RX_POWER_CH7 = 0;
 556   2                                      // RX RSSI CH 7
 557   2                                      if( RX_POWER_CH7 < CALIB_MEMORY_1_MAP.Rx7_LOS_DeAssret )
 558   2                                              SHOW_RSSI_CH7 = SHOW_RSSI_Disable;
 559   2      
 560   2                                      if( RX_POWER_CH7 >= CALIB_MEMORY_1_MAP.Rx7_LOS_DeAssret )
 561   2                                              SHOW_RSSI_CH7 = SHOW_RSSI_Enable;
 562   2      
 563   2                                      if(SHOW_RSSI_CH7 == SHOW_RSSI_Enable)
 564   2                                      {
 565   3                                              QSFPDD_Page11[72] = RX_POWER_CH7 >> 8 ;
 566   3                                              QSFPDD_Page11[73] = RX_POWER_CH7 ;
 567   3                                      }
 568   2                                      else
 569   2                                      {
 570   3                                              QSFPDD_Page11[72] = 0;
 571   3                                              QSFPDD_Page11[73] = 1 ;
 572   3                                      }
 573   2                                      break;
 574   2                      default:
 575   2                                  break;
 576   2              }
 577   1      }
 578          
 579          
 580          void QSFPDD_DDMI_ONLY_ADC_GET()
 581          {
 582   1              Temperature_Monitor(Get_Tempsensor());
 583   1              VCC_Monitor( ADCV_Conversion_Voltage( P3V3_TRX_VCC )*2 );
 584   1              Get_module_Power_Monitor();
 585   1      }
 586          
 587          void QSFPDD_DDMI_StateMachine(unsigned char StateMachine )
 588          {
 589   1              switch(StateMachine)
 590   1              {
 591   2                      case ADC_SM:
C51 COMPILER V9.53.0.0   QSFPDD_MSA_DDMI                                                   01/02/2020 08:52:00 PAGE 11  

 592   2                                              Temperature_Monitor(Get_Tempsensor());
 593   2                                              VCC_Monitor( ADCV_Conversion_Voltage( P3V3_TRX_VCC )*2 );
 594   2                                              break;
 595   2                      case RXP_CH0:
 596   2                                              RX_POWER_M_CH0_CH7(0);
 597   2                                              break;
 598   2                      case RXP_CH1:
 599   2                                              RX_POWER_M_CH0_CH7(1);
 600   2                                              break;
 601   2                      case RXP_CH2:
 602   2                                              RX_POWER_M_CH0_CH7(2);
 603   2                                              break;
 604   2                      case RXP_CH3:
 605   2                                              RX_POWER_M_CH0_CH7(3);
 606   2                                              break;
 607   2                      case RXP_CH4:
 608   2                                              RX_POWER_M_CH0_CH7(4);
 609   2                                              break;
 610   2                      case RXP_CH5:
 611   2                                              RX_POWER_M_CH0_CH7(5);
 612   2                                              break;
 613   2                      case RXP_CH6:
 614   2                                              RX_POWER_M_CH0_CH7(6);
 615   2                                              break;
 616   2                      case RXP_CH7:
 617   2                                              RX_POWER_M_CH0_CH7(7);
 618   2                                              break;
 619   2      
 620   2                      case TXB_TXP_0_SM:
 621   2                                              BIAS_TxPower_Monitor( 0 );
 622   2                                              break;
 623   2      
 624   2                      case TXB_TXP_1_SM:
 625   2                                              BIAS_TxPower_Monitor( 1 );
 626   2                                              break;
 627   2      
 628   2                      case TXB_TXP_2_SM:
 629   2                                              BIAS_TxPower_Monitor( 2 );
 630   2                                              break;
 631   2      
 632   2                      case TXB_TXP_3_SM:
 633   2                                              BIAS_TxPower_Monitor( 3 );
 634   2                                              break;
 635   2      
 636   2                      case TXB_TXP_4_SM:
 637   2                                              BIAS_TxPower_Monitor( 4 );
 638   2                                              break;
 639   2      
 640   2                      case TXB_TXP_5_SM:
 641   2                                              BIAS_TxPower_Monitor( 5 );
 642   2                                              break;
 643   2      
 644   2                      case TXB_TXP_6_SM:
 645   2                                              BIAS_TxPower_Monitor( 6 );
 646   2                                              break;
 647   2      
 648   2                      case TXB_TXP_7_SM:
 649   2                                              BIAS_TxPower_Monitor( 7 );
 650   2                                              break;
 651   2                      case OP_SM:
 652   2                                              if(Power_on_flag==1)
 653   2                                                      DDMI_AW_Monitor();
 654   2                                              break;
C51 COMPILER V9.53.0.0   QSFPDD_MSA_DDMI                                                   01/02/2020 08:52:00 PAGE 12  

 655   2                      case TXLOLLOS:
 656   2                                              if(Power_on_flag==1)
 657   2                                                      QSFPDD_TXLOS_LOL_AW();
 658   2                                      break;
 659   2                      case RXLOLLOS:
 660   2                                              if(Power_on_flag==1)
 661   2                                                      QSFPDD_RXLOS_LOL_AW();
 662   2                                      break;
 663   2                      case Other_DDMI:
 664   2                                              Get_module_Power_Monitor();
 665   2                                              break;
 666   2      
 667   2                      default:
 668   2                                      break;
 669   2              }
 670   1      }
 671          


MODULE INFORMATION:   STATIC OVERLAYABLE
   CODE SIZE        =   2269    ----
   CONSTANT SIZE    =   ----    ----
   XDATA SIZE       =     27    ----
   PDATA SIZE       =   ----    ----
   DATA SIZE        =   ----      24
   IDATA SIZE       =   ----    ----
   BIT SIZE         =   ----    ----
   EDATA SIZE       =   ----    ----
   HDATA SIZE       =   ----    ----
   XDATA CONST SIZE =   ----    ----
   FAR CONST SIZE   =   ----    ----
END OF MODULE INFORMATION.


C51 COMPILATION COMPLETE.  0 WARNING(S),  0 ERROR(S)
