C51 COMPILER V9.53.0.0   INITDEVICE                                                        05/14/2020 09:40:17 PAGE 1   


C51 COMPILER V9.53.0.0, COMPILATION OF MODULE INITDEVICE
OBJECT MODULE PLACED IN .\src\InitDevice.OBJ
COMPILER INVOKED BY: c:\SiliconLabs\SimplicityStudio\v4\developer\toolchains\keil_8051\9.53\BIN\C51.exe D:\Luxshare_OET\
                    -公司專案_FW\OSFP_400G_DSP\FW\V0300_CMIS30\OET_OSFP_400G_DSP_TL_MACOM_CMIS30\src\InitDevice.c OMF2 SMALL DEBUG OBJECTEXTE
                    -ND ROM(LARGE) WARNINGLEVEL(2) FLOATFUZZY(3) OPTIMIZE(8,SPEED) DEFINE(DEBUG=1) INTVECTOR(0X0000) INTPROMOTE INCDIR(D:\Lux
                    -share_OET\公司專案_FW\OSFP_400G_DSP\FW\V0300_CMIS30\OET_OSFP_400G_DSP_TL_MACOM_CMIS30\inc;C:/SiliconLabs/SimplicityStudi
                    -o/v4/developer/sdks/8051/v4.0.7//Device/shared/si8051base;C:/SiliconLabs/SimplicityStudio/v4/developer/sdks/8051/v4.0.7/
                    -/Device/EFM8LB1/inc) PRINT(.\src\InitDevice.lst) COND PAGEWIDTH(120) PAGELENGTH(65) OBJECT(.\src\InitDevice.OBJ)

line level    source

   1          //=========================================================
   2          // src/InitDevice.c: generated by Hardware Configurator
   3          //
   4          // This file will be regenerated when saving a document.
   5          // leave the sections inside the "$[...]" comment tags alone
   6          // or they will be overwritten!!
   7          //=========================================================
   8          
   9          // USER INCLUDES
  10          #include <SI_EFM8LB1_Register_Enums.h>
  11          #include "InitDevice.h"
  12          
  13          // USER PROTOTYPES
  14          // USER FUNCTIONS
  15          
  16          // $[Library Includes]
  17          // [Library Includes]$
  18          
  19          //==============================================================================
  20          // enter_DefaultMode_from_RESET
  21          //==============================================================================
  22          extern void enter_DefaultMode_from_RESET(void) {
  23   1              // $[Config Calls]
  24   1              // Save the SFRPAGE
  25   1              uint8_t SFRPAGE_save = SFRPAGE;
  26   1              WDT_0_enter_DefaultMode_from_RESET();
  27   1              PORTS_0_enter_DefaultMode_from_RESET();
  28   1              PORTS_1_enter_DefaultMode_from_RESET();
  29   1              PORTS_2_enter_DefaultMode_from_RESET();
  30   1              PORTS_3_enter_DefaultMode_from_RESET();
  31   1              PBCFG_0_enter_DefaultMode_from_RESET();
  32   1              ADC_0_enter_DefaultMode_from_RESET();
  33   1              CMP_0_enter_DefaultMode_from_RESET();
  34   1              CMP_1_enter_DefaultMode_from_RESET();
  35   1              VREF_0_enter_DefaultMode_from_RESET();
  36   1              CIP51_0_enter_DefaultMode_from_RESET();
  37   1              RSTSRC_0_enter_DefaultMode_from_RESET();
  38   1              CLOCK_0_enter_DefaultMode_from_RESET();
  39   1              TIMER01_0_enter_DefaultMode_from_RESET();
  40   1              TIMER16_3_enter_DefaultMode_from_RESET();
  41   1              TIMER_SETUP_0_enter_DefaultMode_from_RESET();
  42   1              SMBUS_0_enter_DefaultMode_from_RESET();
  43   1              INTERRUPT_0_enter_DefaultMode_from_RESET();
  44   1              // Restore the SFRPAGE
  45   1              SFRPAGE = SFRPAGE_save;
  46   1              // [Config Calls]$
  47   1      
  48   1      }
  49          
  50          extern void WDT_0_enter_DefaultMode_from_RESET(void) {
  51   1              // $[WDTCN - Watchdog Timer Control]
C51 COMPILER V9.53.0.0   INITDEVICE                                                        05/14/2020 09:40:17 PAGE 2   

  52   1              SFRPAGE = 0x00;
  53   1              //Disable Watchdog with key sequence
  54   1              WDTCN = 0xDE; //First key
  55   1              WDTCN = 0xAD; //Second key
  56   1              // [WDTCN - Watchdog Timer Control]$
  57   1      
  58   1      }
  59          
  60          extern void PORTS_0_enter_DefaultMode_from_RESET(void) {
  61   1              // $[P0 - Port 0 Pin Latch]
  62   1              // [P0 - Port 0 Pin Latch]$
  63   1      
  64   1              // $[P0MDOUT - Port 0 Output Mode]
  65   1              /***********************************************************************
  66   1               - P0.0 output is open-drain
  67   1               - P0.1 output is push-pull
  68   1               - P0.2 output is open-drain
  69   1               - P0.3 output is open-drain
  70   1               - P0.4 output is open-drain
  71   1               - P0.5 output is open-drain
  72   1               - P0.6 output is push-pull
  73   1               - P0.7 output is open-drain
  74   1               ***********************************************************************/
  75   1              P0MDOUT = P0MDOUT_B0__OPEN_DRAIN | P0MDOUT_B1__PUSH_PULL
  76   1                              | P0MDOUT_B2__OPEN_DRAIN | P0MDOUT_B3__OPEN_DRAIN
  77   1                              | P0MDOUT_B4__OPEN_DRAIN | P0MDOUT_B5__OPEN_DRAIN
  78   1                              | P0MDOUT_B6__PUSH_PULL | P0MDOUT_B7__OPEN_DRAIN;
  79   1              // [P0MDOUT - Port 0 Output Mode]$
  80   1      
  81   1              // $[P0MDIN - Port 0 Input Mode]
  82   1              /***********************************************************************
  83   1               - P0.0 pin is configured for analog mode
  84   1               - P0.1 pin is configured for digital mode
  85   1               - P0.2 pin is configured for digital mode
  86   1               - P0.3 pin is configured for digital mode
  87   1               - P0.4 pin is configured for analog mode
  88   1               - P0.5 pin is configured for digital mode
  89   1               - P0.6 pin is configured for digital mode
  90   1               - P0.7 pin is configured for analog mode
  91   1               ***********************************************************************/
  92   1              P0MDIN = P0MDIN_B0__ANALOG | P0MDIN_B1__DIGITAL | P0MDIN_B2__DIGITAL
  93   1                              | P0MDIN_B3__DIGITAL | P0MDIN_B4__ANALOG | P0MDIN_B5__DIGITAL
  94   1                              | P0MDIN_B6__DIGITAL | P0MDIN_B7__ANALOG;
  95   1              // [P0MDIN - Port 0 Input Mode]$
  96   1      
  97   1              // $[P0SKIP - Port 0 Skip]
  98   1              /***********************************************************************
  99   1               - P0.0 pin is skipped by the crossbar
 100   1               - P0.1 pin is skipped by the crossbar
 101   1               - P0.2 pin is skipped by the crossbar
 102   1               - P0.3 pin is skipped by the crossbar
 103   1               - P0.4 pin is skipped by the crossbar
 104   1               - P0.5 pin is skipped by the crossbar
 105   1               - P0.6 pin is skipped by the crossbar
 106   1               - P0.7 pin is skipped by the crossbar
 107   1               ***********************************************************************/
 108   1              P0SKIP = P0SKIP_B0__SKIPPED | P0SKIP_B1__SKIPPED | P0SKIP_B2__SKIPPED
 109   1                              | P0SKIP_B3__SKIPPED | P0SKIP_B4__SKIPPED | P0SKIP_B5__SKIPPED
 110   1                              | P0SKIP_B6__SKIPPED | P0SKIP_B7__SKIPPED;
 111   1              // [P0SKIP - Port 0 Skip]$
 112   1      
 113   1              // $[P0MASK - Port 0 Mask]
 114   1              // [P0MASK - Port 0 Mask]$
C51 COMPILER V9.53.0.0   INITDEVICE                                                        05/14/2020 09:40:17 PAGE 3   

 115   1      
 116   1              // $[P0MAT - Port 0 Match]
 117   1              // [P0MAT - Port 0 Match]$
 118   1      
 119   1      }
 120          
 121          extern void PORTS_1_enter_DefaultMode_from_RESET(void) {
 122   1              // $[P1 - Port 1 Pin Latch]
 123   1              // [P1 - Port 1 Pin Latch]$
 124   1      
 125   1              // $[P1MDOUT - Port 1 Output Mode]
 126   1              /***********************************************************************
 127   1               - P1.0 output is open-drain
 128   1               - P1.1 output is open-drain
 129   1               - P1.2 output is push-pull
 130   1               - P1.3 output is open-drain
 131   1               - P1.4 output is push-pull
 132   1               - P1.5 output is push-pull
 133   1               - P1.6 output is push-pull
 134   1               - P1.7 output is open-drain
 135   1               ***********************************************************************/
 136   1              P1MDOUT = P1MDOUT_B0__OPEN_DRAIN | P1MDOUT_B1__OPEN_DRAIN
 137   1                              | P1MDOUT_B2__PUSH_PULL | P1MDOUT_B3__OPEN_DRAIN
 138   1                              | P1MDOUT_B4__PUSH_PULL | P1MDOUT_B5__PUSH_PULL
 139   1                              | P1MDOUT_B6__PUSH_PULL | P1MDOUT_B7__OPEN_DRAIN;
 140   1              // [P1MDOUT - Port 1 Output Mode]$
 141   1      
 142   1              // $[P1MDIN - Port 1 Input Mode]
 143   1              /***********************************************************************
 144   1               - P1.0 pin is configured for digital mode
 145   1               - P1.1 pin is configured for digital mode
 146   1               - P1.2 pin is configured for digital mode
 147   1               - P1.3 pin is configured for analog mode
 148   1               - P1.4 pin is configured for digital mode
 149   1               - P1.5 pin is configured for digital mode
 150   1               - P1.6 pin is configured for digital mode
 151   1               - P1.7 pin is configured for analog mode
 152   1               ***********************************************************************/
 153   1              P1MDIN = P1MDIN_B0__DIGITAL | P1MDIN_B1__DIGITAL | P1MDIN_B2__DIGITAL
 154   1                              | P1MDIN_B3__ANALOG | P1MDIN_B4__DIGITAL | P1MDIN_B5__DIGITAL
 155   1                              | P1MDIN_B6__DIGITAL | P1MDIN_B7__ANALOG;
 156   1              // [P1MDIN - Port 1 Input Mode]$
 157   1      
 158   1              // $[P1SKIP - Port 1 Skip]
 159   1              /***********************************************************************
 160   1               - P1.0 pin is skipped by the crossbar
 161   1               - P1.1 pin is skipped by the crossbar
 162   1               - P1.2 pin is skipped by the crossbar
 163   1               - P1.3 pin is skipped by the crossbar
 164   1               - P1.4 pin is skipped by the crossbar
 165   1               - P1.5 pin is skipped by the crossbar
 166   1               - P1.6 pin is skipped by the crossbar
 167   1               - P1.7 pin is skipped by the crossbar
 168   1               ***********************************************************************/
 169   1              P1SKIP = P1SKIP_B0__SKIPPED | P1SKIP_B1__SKIPPED | P1SKIP_B2__SKIPPED
 170   1                              | P1SKIP_B3__SKIPPED | P1SKIP_B4__SKIPPED | P1SKIP_B5__SKIPPED
 171   1                              | P1SKIP_B6__SKIPPED | P1SKIP_B7__SKIPPED;
 172   1              // [P1SKIP - Port 1 Skip]$
 173   1      
 174   1              // $[P1MASK - Port 1 Mask]
 175   1              // [P1MASK - Port 1 Mask]$
 176   1      
 177   1              // $[P1MAT - Port 1 Match]
C51 COMPILER V9.53.0.0   INITDEVICE                                                        05/14/2020 09:40:17 PAGE 4   

 178   1              // [P1MAT - Port 1 Match]$
 179   1      
 180   1      }
 181          
 182          extern void PORTS_2_enter_DefaultMode_from_RESET(void) {
 183   1              // $[P2 - Port 2 Pin Latch]
 184   1              // [P2 - Port 2 Pin Latch]$
 185   1      
 186   1              // $[P2MDOUT - Port 2 Output Mode]
 187   1              // [P2MDOUT - Port 2 Output Mode]$
 188   1      
 189   1              // $[P2MDIN - Port 2 Input Mode]
 190   1              /***********************************************************************
 191   1               - P2.0 pin is configured for digital mode
 192   1               - P2.1 pin is configured for digital mode
 193   1               - P2.2 pin is configured for analog mode
 194   1               - P2.3 pin is configured for analog mode
 195   1               - P2.4 pin is configured for analog mode
 196   1               - P2.5 pin is configured for analog mode
 197   1               - P2.6 pin is configured for analog mode
 198   1               ***********************************************************************/
 199   1              SFRPAGE = 0x20;
 200   1              P2MDIN = P2MDIN_B0__DIGITAL | P2MDIN_B1__DIGITAL | P2MDIN_B2__ANALOG
 201   1                              | P2MDIN_B3__ANALOG | P2MDIN_B4__ANALOG | P2MDIN_B5__ANALOG
 202   1                              | P2MDIN_B6__ANALOG;
 203   1              // [P2MDIN - Port 2 Input Mode]$
 204   1      
 205   1              // $[P2SKIP - Port 2 Skip]
 206   1              /***********************************************************************
 207   1               - P2.0 pin is not skipped by the crossbar
 208   1               - P2.1 pin is not skipped by the crossbar
 209   1               - P2.2 pin is skipped by the crossbar
 210   1               - P2.3 pin is skipped by the crossbar
 211   1               ***********************************************************************/
 212   1              P2SKIP = P2SKIP_B0__NOT_SKIPPED | P2SKIP_B1__NOT_SKIPPED
 213   1                              | P2SKIP_B2__SKIPPED | P2SKIP_B3__SKIPPED;
 214   1              // [P2SKIP - Port 2 Skip]$
 215   1      
 216   1              // $[P2MASK - Port 2 Mask]
 217   1              // [P2MASK - Port 2 Mask]$
 218   1      
 219   1              // $[P2MAT - Port 2 Match]
 220   1              // [P2MAT - Port 2 Match]$
 221   1      
 222   1      }
 223          
 224          extern void PORTS_3_enter_DefaultMode_from_RESET(void) {
 225   1              // $[P3 - Port 3 Pin Latch]
 226   1              // [P3 - Port 3 Pin Latch]$
 227   1      
 228   1              // $[P3MDOUT - Port 3 Output Mode]
 229   1              /***********************************************************************
 230   1               - P3.0 output is open-drain
 231   1               - P3.1 output is open-drain
 232   1               - P3.2 output is open-drain
 233   1               - P3.3 output is open-drain
 234   1               - P3.4 output is push-pull
 235   1               - P3.7 output is open-drain
 236   1               ***********************************************************************/
 237   1              P3MDOUT = P3MDOUT_B0__OPEN_DRAIN | P3MDOUT_B1__OPEN_DRAIN
 238   1                              | P3MDOUT_B2__OPEN_DRAIN | P3MDOUT_B3__OPEN_DRAIN
 239   1                              | P3MDOUT_B4__PUSH_PULL | P3MDOUT_B7__OPEN_DRAIN;
 240   1              // [P3MDOUT - Port 3 Output Mode]$
C51 COMPILER V9.53.0.0   INITDEVICE                                                        05/14/2020 09:40:17 PAGE 5   

 241   1      
 242   1              // $[P3MDIN - Port 3 Input Mode]
 243   1              /***********************************************************************
 244   1               - P3.0 pin is configured for digital mode
 245   1               - P3.1 pin is configured for digital mode
 246   1               - P3.2 pin is configured for digital mode
 247   1               - P3.3 pin is configured for digital mode
 248   1               - P3.4 pin is configured for digital mode
 249   1               - P3.7 pin is configured for digital mode
 250   1               ***********************************************************************/
 251   1              P3MDIN = P3MDIN_B0__DIGITAL | P3MDIN_B1__DIGITAL | P3MDIN_B2__DIGITAL
 252   1                              | P3MDIN_B3__DIGITAL | P3MDIN_B4__DIGITAL | P3MDIN_B7__DIGITAL;
 253   1              // [P3MDIN - Port 3 Input Mode]$
 254   1      
 255   1      }
 256          
 257          extern void PBCFG_0_enter_DefaultMode_from_RESET(void) {
 258   1              // $[XBR2 - Port I/O Crossbar 2]
 259   1              /***********************************************************************
 260   1               - Weak Pullups enabled 
 261   1               - Crossbar enabled
 262   1               - UART1 I/O unavailable at Port pin
 263   1               - UART1 RTS1 unavailable at Port pin
 264   1               - UART1 CTS1 unavailable at Port pin
 265   1               ***********************************************************************/
 266   1              SFRPAGE = 0x00;
 267   1              XBR2 = XBR2_WEAKPUD__PULL_UPS_ENABLED | XBR2_XBARE__ENABLED
 268   1                              | XBR2_URT1E__DISABLED | XBR2_URT1RTSE__DISABLED
 269   1                              | XBR2_URT1CTSE__DISABLED;
 270   1              // [XBR2 - Port I/O Crossbar 2]$
 271   1      
 272   1              // $[PRTDRV - Port Drive Strength]
 273   1              // [PRTDRV - Port Drive Strength]$
 274   1      
 275   1              // $[XBR0 - Port I/O Crossbar 0]
 276   1              /***********************************************************************
 277   1               - UART0 I/O unavailable at Port pin
 278   1               - SPI I/O unavailable at Port pins
 279   1               - SMBus 0 I/O routed to Port pins
 280   1               - CP0 unavailable at Port pin
 281   1               - Asynchronous CP0 unavailable at Port pin
 282   1               - CP1 unavailable at Port pin
 283   1               - Asynchronous CP1 unavailable at Port pin
 284   1               - SYSCLK unavailable at Port pin
 285   1               ***********************************************************************/
 286   1              XBR0 = XBR0_URT0E__DISABLED | XBR0_SPI0E__DISABLED | XBR0_SMB0E__ENABLED
 287   1                              | XBR0_CP0E__DISABLED | XBR0_CP0AE__DISABLED | XBR0_CP1E__DISABLED
 288   1                              | XBR0_CP1AE__DISABLED | XBR0_SYSCKE__DISABLED;
 289   1              // [XBR0 - Port I/O Crossbar 0]$
 290   1      
 291   1              // $[XBR1 - Port I/O Crossbar 1]
 292   1              // [XBR1 - Port I/O Crossbar 1]$
 293   1      
 294   1      }
 295          
 296          extern void ADC_0_enter_DefaultMode_from_RESET(void) {
 297   1              // $[ADC0CN2 - ADC0 Control 2]
 298   1              // [ADC0CN2 - ADC0 Control 2]$
 299   1      
 300   1              // $[ADC0CN1 - ADC0 Control 1]
 301   1              /***********************************************************************
 302   1               - ADC0 operates in 14-bit mode
 303   1               - Right justified. No shifting applied
C51 COMPILER V9.53.0.0   INITDEVICE                                                        05/14/2020 09:40:17 PAGE 6   

 304   1               - Perform and Accumulate 1 conversion
 305   1               ***********************************************************************/
 306   1              ADC0CN1 = ADC0CN1_ADBITS__14_BIT | ADC0CN1_ADSJST__RIGHT_NO_SHIFT
 307   1                              | ADC0CN1_ADRPT__ACC_1;
 308   1              // [ADC0CN1 - ADC0 Control 1]$
 309   1      
 310   1              // $[ADC0MX - ADC0 Multiplexer Selection]
 311   1              /***********************************************************************
 312   1               - Select ADC0.20
 313   1               ***********************************************************************/
 314   1              ADC0MX = ADC0MX_ADC0MX__TEMP;
 315   1              // [ADC0MX - ADC0 Multiplexer Selection]$
 316   1      
 317   1              // $[ADC0CF2 - ADC0 Power Control]
 318   1              /***********************************************************************
 319   1               - The ADC0 ground reference is the GND pin
 320   1               - The ADC0 voltage reference is the VREF pin 
 321   1               - Power Up Delay Time = 0x1F
 322   1               ***********************************************************************/
 323   1              ADC0CF2 = ADC0CF2_GNDSL__GND_PIN | ADC0CF2_REFSL__VREF_PIN
 324   1                              | (0x1F << ADC0CF2_ADPWR__SHIFT);
 325   1              // [ADC0CF2 - ADC0 Power Control]$
 326   1      
 327   1              // $[ADC0CF0 - ADC0 Configuration]
 328   1              /***********************************************************************
 329   1               - ADCCLK = SYSCLK
 330   1               - SAR Clock Divider = 0x03
 331   1               ***********************************************************************/
 332   1              ADC0CF0 = ADC0CF0_ADCLKSEL__SYSCLK | (0x03 << ADC0CF0_ADSC__SHIFT);
 333   1              // [ADC0CF0 - ADC0 Configuration]$
 334   1      
 335   1              // $[ADC0CF1 - ADC0 Configuration]
 336   1              /***********************************************************************
 337   1               - Disable low power mode
 338   1               - Conversion Tracking Time = 0x04
 339   1               ***********************************************************************/
 340   1              ADC0CF1 = ADC0CF1_ADLPM__LP_DISABLED | (0x04 << ADC0CF1_ADTK__SHIFT);
 341   1              // [ADC0CF1 - ADC0 Configuration]$
 342   1      
 343   1              // $[ADC0ASAL - ADC0 Autoscan Start Address Low Byte]
 344   1              // [ADC0ASAL - ADC0 Autoscan Start Address Low Byte]$
 345   1      
 346   1              // $[ADC0GTH - ADC0 Greater-Than High Byte]
 347   1              // [ADC0GTH - ADC0 Greater-Than High Byte]$
 348   1      
 349   1              // $[ADC0GTL - ADC0 Greater-Than Low Byte]
 350   1              // [ADC0GTL - ADC0 Greater-Than Low Byte]$
 351   1      
 352   1              // $[ADC0LTH - ADC0 Less-Than High Byte]
 353   1              // [ADC0LTH - ADC0 Less-Than High Byte]$
 354   1      
 355   1              // $[ADC0LTL - ADC0 Less-Than Low Byte]
 356   1              // [ADC0LTL - ADC0 Less-Than Low Byte]$
 357   1      
 358   1              // $[ADC0ASCF - ADC0 Autoscan Configuration]
 359   1              // [ADC0ASCF - ADC0 Autoscan Configuration]$
 360   1      
 361   1              // $[ADC0CN0 - ADC0 Control 0]
 362   1              /***********************************************************************
 363   1               - Enable ADC0 
 364   1               - Enable the Temperature Sensor
 365   1               - The on-chip PGA gain is 0.5
 366   1               ***********************************************************************/
C51 COMPILER V9.53.0.0   INITDEVICE                                                        05/14/2020 09:40:17 PAGE 7   

 367   1              ADC0CN0 &= ~ADC0CN0_ADGN__FMASK;
 368   1              ADC0CN0 |= ADC0CN0_ADEN__ENABLED | ADC0CN0_TEMPE__TEMP_ENABLED
 369   1                              | ADC0CN0_ADGN__GAIN_0P5;
 370   1              // [ADC0CN0 - ADC0 Control 0]$
 371   1      
 372   1      }
 373          
 374          extern void CMP_1_enter_DefaultMode_from_RESET(void) {
 375   1              // $[CMP1MX - Comparator 1 Multiplexer Selection]
 376   1              /***********************************************************************
 377   1               - External pin CMP1P.5
 378   1               - External pin CMP1N.0
 379   1               ***********************************************************************/
 380   1              uint8_t delay;
 381   1      
 382   1              CMP1MX = CMP1MX_CMXP__CMP1P5 | CMP1MX_CMXN__CMP1N0;
 383   1              // Delay to allow the comparator inputs to settle
 384   1              for (delay = 0; delay < 0x20; delay++)
 385   1                      ;
 386   1              // [CMP1MX - Comparator 1 Multiplexer Selection]$
 387   1      
 388   1              // $[CMP1CN1 - Comparator 1 Control 1]
 389   1              // [CMP1CN1 - Comparator 1 Control 1]$
 390   1      
 391   1              // $[CMP1MD - Comparator 1 Mode]
 392   1              /***********************************************************************
 393   1               - Mode 0 
 394   1               - Comparator falling-edge interrupt enabled
 395   1               - Comparator rising-edge interrupt enabled
 396   1               ***********************************************************************/
 397   1              CMP1MD &= ~CMP1MD_CPMD__FMASK;
 398   1              CMP1MD |= CMP1MD_CPFIE__FALL_INT_ENABLED | CMP1MD_CPRIE__RISE_INT_ENABLED;
 399   1              // [CMP1MD - Comparator 1 Mode]$
 400   1      
 401   1              // $[CMP1CN0 - Comparator 1 Control 0]
 402   1              /***********************************************************************
 403   1               - Comparator enabled
 404   1               ***********************************************************************/
 405   1              CMP1CN0 |= CMP1CN0_CPEN__ENABLED;
 406   1              // [CMP1CN0 - Comparator 1 Control 0]$
 407   1      
 408   1      }
 409          
 410          extern void VREF_0_enter_DefaultMode_from_RESET(void) {
 411   1              // $[REF0CN - Voltage Reference Control]
 412   1              /***********************************************************************
 413   1               - 1.2 V reference output to VREF pin
 414   1               ***********************************************************************/
 415   1              REF0CN = REF0CN_VREFSL__VREF_1P2;
 416   1              // [REF0CN - Voltage Reference Control]$
 417   1      
 418   1      }
 419          
 420          extern void CIP51_0_enter_DefaultMode_from_RESET(void) {
 421   1              // $[PFE0CN - Prefetch Engine Control]
 422   1              /***********************************************************************
 423   1               - SYSCLK < 75 MHz
 424   1               ***********************************************************************/
 425   1              SFRPAGE = 0x10;
 426   1              PFE0CN = PFE0CN_FLRT__SYSCLK_BELOW_75_MHZ;
 427   1              // [PFE0CN - Prefetch Engine Control]$
 428   1      
 429   1      }
C51 COMPILER V9.53.0.0   INITDEVICE                                                        05/14/2020 09:40:17 PAGE 8   

 430          
 431          extern void RSTSRC_0_enter_DefaultMode_from_RESET(void) {
 432   1              // $[RSTSRC - Reset Source]
 433   1              /***********************************************************************
 434   1               - A power-on or supply monitor reset occurred
 435   1               - A missing clock detector reset occurred
 436   1               - A Comparator 0 reset did not occur
 437   1               ***********************************************************************/
 438   1              SFRPAGE = 0x00;
 439   1              RSTSRC = RSTSRC_PORSF__SET | RSTSRC_MCDRSF__SET | RSTSRC_C0RSEF__NOT_SET;
 440   1              // [RSTSRC - Reset Source]$
 441   1      
 442   1      }
 443          
 444          extern void CLOCK_0_enter_DefaultMode_from_RESET(void) {
 445   1              // $[HFOSC1 Setup]
 446   1              // Ensure SYSCLK is > 24 MHz before switching to HFOSC1
 447   1              CLKSEL = CLKSEL_CLKSL__HFOSC0 | CLKSEL_CLKDIV__SYSCLK_DIV_1;
 448   1              while ((CLKSEL & CLKSEL_DIVRDY__BMASK) == CLKSEL_DIVRDY__NOT_READY)
 449   1                      ;
 450   1              // [HFOSC1 Setup]$
 451   1      
 452   1              // $[CLKSEL - Clock Select]
 453   1              /***********************************************************************
 454   1               - Clock derived from the Internal High Frequency Oscillator 1
 455   1               - SYSCLK is equal to selected clock source divided by 1
 456   1               ***********************************************************************/
 457   1              CLKSEL = CLKSEL_CLKSL__HFOSC1 | CLKSEL_CLKDIV__SYSCLK_DIV_1;
 458   1              while ((CLKSEL & CLKSEL_DIVRDY__BMASK) == CLKSEL_DIVRDY__NOT_READY)
 459   1                      ;
 460   1              // [CLKSEL - Clock Select]$
 461   1      
 462   1      }
 463          
 464          extern void TIMER01_0_enter_DefaultMode_from_RESET(void) {
 465   1              // $[Timer Initialization]
 466   1              //Save Timer Configuration
 467   1              uint8_t TCON_save;
 468   1              TCON_save = TCON;
 469   1              //Stop Timers
 470   1              TCON &= ~TCON_TR0__BMASK & ~TCON_TR1__BMASK;
 471   1      
 472   1              // [Timer Initialization]$
 473   1      
 474   1              // $[TH0 - Timer 0 High Byte]
 475   1              /***********************************************************************
 476   1               - Timer 0 High Byte = 0xF1
 477   1               ***********************************************************************/
 478   1              TH0 = (0xF1 << TH0_TH0__SHIFT);
 479   1              // [TH0 - Timer 0 High Byte]$
 480   1      
 481   1              // $[TL0 - Timer 0 Low Byte]
 482   1              // [TL0 - Timer 0 Low Byte]$
 483   1      
 484   1              // $[TH1 - Timer 1 High Byte]
 485   1              // [TH1 - Timer 1 High Byte]$
 486   1      
 487   1              // $[TL1 - Timer 1 Low Byte]
 488   1              // [TL1 - Timer 1 Low Byte]$
 489   1      
 490   1              // $[Timer Restoration]
 491   1              //Restore Timer Configuration
 492   1              TCON |= (TCON_save & TCON_TR0__BMASK) | (TCON_save & TCON_TR1__BMASK);
C51 COMPILER V9.53.0.0   INITDEVICE                                                        05/14/2020 09:40:17 PAGE 9   

 493   1      
 494   1              // [Timer Restoration]$
 495   1      
 496   1      }
 497          
 498          extern void TIMER16_3_enter_DefaultMode_from_RESET(void) {
 499   1              // $[Timer Initialization]
 500   1              // Save Timer Configuration
 501   1              uint8_t TMR3CN0_TR3_save;
 502   1              TMR3CN0_TR3_save = TMR3CN0 & TMR3CN0_TR3__BMASK;
 503   1              // Stop Timer
 504   1              TMR3CN0 &= ~(TMR3CN0_TR3__BMASK);
 505   1              // [Timer Initialization]$
 506   1      
 507   1              // $[TMR3CN1 - Timer 3 Control 1]
 508   1              // [TMR3CN1 - Timer 3 Control 1]$
 509   1      
 510   1              // $[TMR3CN0 - Timer 3 Control]
 511   1              // [TMR3CN0 - Timer 3 Control]$
 512   1      
 513   1              // $[TMR3H - Timer 3 High Byte]
 514   1              // [TMR3H - Timer 3 High Byte]$
 515   1      
 516   1              // $[TMR3L - Timer 3 Low Byte]
 517   1              // [TMR3L - Timer 3 Low Byte]$
 518   1      
 519   1              // $[TMR3RLH - Timer 3 Reload High Byte]
 520   1              /***********************************************************************
 521   1               - Timer 3 Reload High Byte = 0x15
 522   1               ***********************************************************************/
 523   1              TMR3RLH = (0x15 << TMR3RLH_TMR3RLH__SHIFT);
 524   1              // [TMR3RLH - Timer 3 Reload High Byte]$
 525   1      
 526   1              // $[TMR3RLL - Timer 3 Reload Low Byte]
 527   1              /***********************************************************************
 528   1               - Timer 3 Reload Low Byte = 0xA0
 529   1               ***********************************************************************/
 530   1              TMR3RLL = (0xA0 << TMR3RLL_TMR3RLL__SHIFT);
 531   1              // [TMR3RLL - Timer 3 Reload Low Byte]$
 532   1      
 533   1              // $[TMR3CN0]
 534   1              // [TMR3CN0]$
 535   1      
 536   1              // $[Timer Restoration]
 537   1              // Restore Timer Configuration
 538   1              TMR3CN0 |= TMR3CN0_TR3_save;
 539   1              // [Timer Restoration]$
 540   1      
 541   1      }
 542          
 543          extern void TIMER_SETUP_0_enter_DefaultMode_from_RESET(void) {
 544   1              // $[CKCON0 - Clock Control 0]
 545   1              /***********************************************************************
 546   1               - System clock divided by 4
 547   1               - Counter/Timer 0 uses the clock defined by the prescale field, SCA
 548   1               - Timer 2 high byte uses the clock defined by T2XCLK in TMR2CN0
 549   1               - Timer 2 low byte uses the clock defined by T2XCLK in TMR2CN0
 550   1               - Timer 3 high byte uses the clock defined by T3XCLK in TMR3CN0
 551   1               - Timer 3 low byte uses the clock defined by T3XCLK in TMR3CN0
 552   1               - Timer 1 uses the clock defined by the prescale field, SCA
 553   1               ***********************************************************************/
 554   1              CKCON0 = CKCON0_SCA__SYSCLK_DIV_4 | CKCON0_T0M__PRESCALE
 555   1                              | CKCON0_T2MH__EXTERNAL_CLOCK | CKCON0_T2ML__EXTERNAL_CLOCK
C51 COMPILER V9.53.0.0   INITDEVICE                                                        05/14/2020 09:40:17 PAGE 10  

 556   1                              | CKCON0_T3MH__EXTERNAL_CLOCK | CKCON0_T3ML__EXTERNAL_CLOCK
 557   1                              | CKCON0_T1M__PRESCALE;
 558   1              // [CKCON0 - Clock Control 0]$
 559   1      
 560   1              // $[CKCON1 - Clock Control 1]
 561   1              // [CKCON1 - Clock Control 1]$
 562   1      
 563   1              // $[TMOD - Timer 0/1 Mode]
 564   1              /***********************************************************************
 565   1               - Mode 2, 8-bit Counter/Timer with Auto-Reload
 566   1               - Mode 0, 13-bit Counter/Timer
 567   1               - Timer Mode
 568   1               - Timer 0 enabled when TR0 = 1 irrespective of INT0 logic level
 569   1               - Timer Mode
 570   1               - Timer 1 enabled when TR1 = 1 irrespective of INT1 logic level
 571   1               ***********************************************************************/
 572   1              TMOD = TMOD_T0M__MODE2 | TMOD_T1M__MODE0 | TMOD_CT0__TIMER
 573   1                              | TMOD_GATE0__DISABLED | TMOD_CT1__TIMER | TMOD_GATE1__DISABLED;
 574   1              // [TMOD - Timer 0/1 Mode]$
 575   1      
 576   1              // $[TCON - Timer 0/1 Control]
 577   1              // [TCON - Timer 0/1 Control]$
 578   1      
 579   1      }
 580          
 581          extern void SMBUS_0_enter_DefaultMode_from_RESET(void) {
 582   1              // $[SMB0FCN0 - SMBus0 FIFO Control 0]
 583   1              // [SMB0FCN0 - SMBus0 FIFO Control 0]$
 584   1      
 585   1              // $[SMB0RXLN - SMBus0 Receive Length Counter]
 586   1              // [SMB0RXLN - SMBus0 Receive Length Counter]$
 587   1      
 588   1              // $[SMB0ADR - SMBus 0 Slave Address]
 589   1              /***********************************************************************
 590   1               - General Call Address is ignored
 591   1               - SMBus Hardware Slave Address = 0x50
 592   1               ***********************************************************************/
 593   1              SMB0ADR = SMB0ADR_GC__IGNORED | (0x50 << SMB0ADR_SLV__SHIFT);
 594   1              // [SMB0ADR - SMBus 0 Slave Address]$
 595   1      
 596   1              // $[SMB0ADM - SMBus 0 Slave Address Mask]
 597   1              // [SMB0ADM - SMBus 0 Slave Address Mask]$
 598   1      
 599   1              // $[SMB0TC - SMBus 0 Timing and Pin Control]
 600   1              // [SMB0TC - SMBus 0 Timing and Pin Control]$
 601   1      
 602   1              // $[SMB0CF - SMBus 0 Configuration]
 603   1              /***********************************************************************
 604   1               - Enable bus free timeouts
 605   1               - Enable SCL low timeouts if Timer 3 RLFSEL is set appropriately
 606   1               - Enable SDA extended setup and hold times
 607   1               ***********************************************************************/
 608   1              SMB0CF |= SMB0CF_SMBFTE__FREE_TO_ENABLED | SMB0CF_SMBTOE__SCL_TO_ENABLED
 609   1                              | SMB0CF_EXTHOLD__ENABLED;
 610   1              // [SMB0CF - SMBus 0 Configuration]$
 611   1      
 612   1      }
 613          
 614          extern void INTERRUPT_0_enter_DefaultMode_from_RESET(void) {
 615   1              // $[EIE1 - Extended Interrupt Enable 1]
 616   1              /***********************************************************************
 617   1               - Disable ADC0 Conversion Complete interrupt
 618   1               - Disable ADC0 Window Comparison interrupt
C51 COMPILER V9.53.0.0   INITDEVICE                                                        05/14/2020 09:40:17 PAGE 11  

 619   1               - Enable interrupt requests generated by the comparator 0 CPRIF or CPFIF
 620   1               flags
 621   1               - Enable interrupt requests generated by the comparator 1 CPRIF or CPFIF
 622   1               flags
 623   1               - Disable all Port Match interrupts
 624   1               - Disable all PCA0 interrupts
 625   1               - Enable interrupt requests generated by SMB0
 626   1               - Enable interrupt requests generated by the TF3L or TF3H flags
 627   1               ***********************************************************************/
 628   1              EIE1 = EIE1_EADC0__DISABLED | EIE1_EWADC0__DISABLED | EIE1_ECP0__ENABLED
 629   1                              | EIE1_ECP1__ENABLED | EIE1_EMAT__DISABLED | EIE1_EPCA0__DISABLED
 630   1                              | EIE1_ESMB0__ENABLED | EIE1_ET3__ENABLED;
 631   1              // [EIE1 - Extended Interrupt Enable 1]$
 632   1      
 633   1              // $[EIE2 - Extended Interrupt Enable 2]
 634   1              // [EIE2 - Extended Interrupt Enable 2]$
 635   1      
 636   1              // $[EIP1H - Extended Interrupt Priority 1 High]
 637   1              /***********************************************************************
 638   1               - ADC0 Conversion Complete interrupt priority MSB set to low
 639   1               - ADC0 Window interrupt priority MSB set to low
 640   1               - CP0 interrupt priority MSB set to low
 641   1               - CP1 interrupt priority MSB set to low
 642   1               - Port Match interrupt priority MSB set to low
 643   1               - PCA0 interrupt priority MSB set to low
 644   1               - SMB0 interrupt priority MSB set to high
 645   1               - Timer 3 interrupt priority MSB set to low
 646   1               ***********************************************************************/
 647   1              SFRPAGE = 0x10;
 648   1              EIP1H = EIP1H_PHADC0__LOW | EIP1H_PHWADC0__LOW | EIP1H_PHCP0__LOW
 649   1                              | EIP1H_PHCP1__LOW | EIP1H_PHMAT__LOW | EIP1H_PHPCA0__LOW
 650   1                              | EIP1H_PHSMB0__HIGH | EIP1H_PHT3__LOW;
 651   1              // [EIP1H - Extended Interrupt Priority 1 High]$
 652   1      
 653   1              // $[EIP1 - Extended Interrupt Priority 1 Low]
 654   1              // [EIP1 - Extended Interrupt Priority 1 Low]$
 655   1      
 656   1              // $[EIP2 - Extended Interrupt Priority 2]
 657   1              // [EIP2 - Extended Interrupt Priority 2]$
 658   1      
 659   1              // $[EIP2H - Extended Interrupt Priority 2 High]
 660   1              // [EIP2H - Extended Interrupt Priority 2 High]$
 661   1      
 662   1              // $[IE - Interrupt Enable]
 663   1              // [IE - Interrupt Enable]$
 664   1      
 665   1              // $[IP - Interrupt Priority]
 666   1              // [IP - Interrupt Priority]$
 667   1      
 668   1              // $[IPH - Interrupt Priority High]
 669   1              // [IPH - Interrupt Priority High]$
 670   1      
 671   1      }
 672          
 673          extern void CMP_0_enter_DefaultMode_from_RESET(void) {
 674   1              // $[CMP0MX - Comparator 0 Multiplexer Selection]
 675   1              /***********************************************************************
 676   1               - External pin CMP0P.2
 677   1               - External pin CMP0N.5
 678   1               ***********************************************************************/
 679   1              uint8_t delay;
 680   1      
 681   1              CMP0MX = CMP0MX_CMXP__CMP0P2 | CMP0MX_CMXN__CMP0N5;
C51 COMPILER V9.53.0.0   INITDEVICE                                                        05/14/2020 09:40:17 PAGE 12  

 682   1              // Delay to allow the comparator inputs to settle
 683   1              for (delay = 0; delay < 0x20; delay++)
 684   1                      ;
 685   1              // [CMP0MX - Comparator 0 Multiplexer Selection]$
 686   1      
 687   1              // $[CMP0CN1 - Comparator 0 Control 1]
 688   1              // [CMP0CN1 - Comparator 0 Control 1]$
 689   1      
 690   1              // $[CMP0MD - Comparator 0 Mode]
 691   1              /***********************************************************************
 692   1               - Mode 0 
 693   1               - Comparator falling-edge interrupt enabled
 694   1               - Comparator rising-edge interrupt enabled
 695   1               ***********************************************************************/
 696   1              CMP0MD &= ~CMP0MD_CPMD__FMASK;
 697   1              CMP0MD |= CMP0MD_CPFIE__FALL_INT_ENABLED | CMP0MD_CPRIE__RISE_INT_ENABLED;
 698   1              // [CMP0MD - Comparator 0 Mode]$
 699   1      
 700   1              // $[CMP0CN0 - Comparator 0 Control 0]
 701   1              /***********************************************************************
 702   1               - Comparator enabled
 703   1               ***********************************************************************/
 704   1              CMP0CN0 |= CMP0CN0_CPEN__ENABLED;
 705   1              // [CMP0CN0 - Comparator 0 Control 0]$
 706   1      
 707   1      }
 708          


MODULE INFORMATION:   STATIC OVERLAYABLE
   CODE SIZE        =    272    ----
   CONSTANT SIZE    =   ----    ----
   XDATA SIZE       =   ----    ----
   PDATA SIZE       =   ----    ----
   DATA SIZE        =   ----       1
   IDATA SIZE       =   ----    ----
   BIT SIZE         =   ----    ----
   EDATA SIZE       =   ----    ----
   HDATA SIZE       =   ----    ----
   XDATA CONST SIZE =   ----    ----
   FAR CONST SIZE   =   ----    ----
END OF MODULE INFORMATION.


C51 COMPILATION COMPLETE.  0 WARNING(S),  0 ERROR(S)
