AX51 MACRO ASSEMBLER  FLASHTABLE                                                            04/07/20 13:59:09 PAGE     1


MACRO ASSEMBLER AX51 V3.12.0.0
OBJECT MODULE PLACED IN .\EFM8LB\FlashTable.OBJ
ASSEMBLER INVOKED BY: c:\SiliconLabs\SimplicityStudio\v4\developer\toolchains\keil_8051\9.53\BIN\AX51.exe D:\Luxshare_OE
                      T\公司專案_FW\OSFP_400G_DSP\FW\V0300_CMIS30\OET_OSFP_400G_DSP_TL_MACOM_CMIS30\EFM8LB\FlashTable.A5
                      1 ERRORPRINT SET(SMALL,SILABS_STARTUP=1) DEBUG MACRO NOMOD51 INCDIR(D:\Luxshare_OET\公司專案_FW\OS
                      FP_400G_DSP\FW\V0300_CMIS30\OET_OSFP_400G_DSP_TL_MACOM_CMIS30\inc;C:/SiliconLabs/SimplicityStudio/
                      v4/developer/sdks/8051/v4.0.7//Device/shared/si8051base;C:/SiliconLabs/SimplicityStudio/v4/develop
                      er/sdks/8051/v4.0.7//Device/EFM8LB1/inc) PRINT(.\EFM8LB\FlashTable.lst) COND SYMBOLS PAGEWIDTH(120
                      ) PAGELENGTH(65) OBJECT(.\EFM8LB\FlashTable.OBJ) 

LOC    OBJ             LINE     SOURCE

                          1     
                          2     
                          3     
                          4     
                          5     
                          6     
                          7     
                          8     
                          9     
                         10     
                         11     
                         12     
                         13     
                         14     
00E800                   15             CSEG    AT      0xE800
                         16         PUBLIC          FS_QSFPDD_A0_Table
00E800                   17     FS_QSFPDD_A0_Table:
                         18                             
00E800 19                19                             DB 0x19                                                         
                                                        
00E801 00                20                             DB 0x00                                                         
                                                
00E802 00                21                             DB 0x00                                          
00E803 00                22                             DB 0x00                                          
00E804 00                23                             DB 0x00                                          
00E805 00                24                             DB 0x00                                          
00E806 00                25                             DB 0x00                                          
00E807 00                26                             DB 0x00                                          
00E808 00                27                             DB 0x00                                          
00E809 00                28                             DB 0x00                                          
00E80A 00                29                             DB 0x00                                          
00E80B 00                30                             DB 0x00                                          
00E80C 00                31                 DB 0x00                                          
00E80D 00                32                 DB 0x00                                          
00E80E 0000              33                 DB 0x00,0x00                                                                
                                        
00E810 0000              34                 DB 0x00,0x00                                                             
00E812 0000              35                 DB 0x00,0x00                                     
00E814 0000              36                 DB 0x00,0x00                                                                
                                    
00E816 0000              37                 DB 0x00,0x00                                                                
                                    
00E818 0000              38                 DB 0x00,0x00                                                                
                                    
00E81A 00                39                 DB 0x00                                                                     
                                    
00E81B 0000              40                 DB 0x00,0x00                                                             
00E81D 0000              41                 DB 0x00,0x00                                                             
00E81F 00                42                 DB 0x00                                          
AX51 MACRO ASSEMBLER  FLASHTABLE                                                            04/07/20 13:59:09 PAGE     2

00E820 00                43                 DB 0x00                                          
00E821 00                44                 DB 0x00                                          
00E822 00                45                 DB 0x00                                                                     
                                    
00E823 00                46                 DB 0x00                                          
00E824 00                47                 DB 0x00                                          
                         48     
00E825 00                49                 DB 0x00                                                                     
                                
00E826 0000              50                 DB 0x00,0x00                                                                
                                    
00E828 0000              51                 DB 0x00,0x00                                                                
                                    
                         52     
00E82A 0000              53                 DB 0x00,0x00                                                                
                                    
00E82C 0000              54                 DB 0x00,0x00                                                                
                                    
00E82E 0000              55                 DB 0x00,0x00                                                                
                                    
00E830 0000              56                 DB 0x00,0x00                                                                
                                    
                         57     
00E832 0000              58                 DB 0x00,0x00                                                                
                                    
00E834 0000              59                 DB 0x00,0x00                                                                
                                    
00E836 0000              60                 DB 0x00,0x00                                                                
                                    
00E838 0000              61                 DB 0x00,0x00                                                                
                                    
                         62     
00E83A 00000000          63                 DB 0x00,0x00,0x00,0x00,0x00,0x00                 
00E83E 0000                     
00E840 0000              64                 DB 0x00,0x00                                     
00E842 00000000          65                             DB 0x00,0x00,0x00,0x00,0x00,0x00,0x00,0x00       
00E846 00000000                 
00E84A 00000000          66                             DB 0x00,0x00,0x00,0x00,0x00,0x00,0x00,0x00       
00E84E 00000000                 
00E852 000000            67                             DB 0x00,0x00,0x00                                
00E855 01                68                 DB 0x01                                          
00E856 00000000          69                             DB 0x00,0x00,0x00,0x00,0x00,0x00,0x00,0x00               
00E85A 00000000                 
00E85E 00000000          70                             DB 0x00,0x00,0x00,0x00,0x00,0x00,0x00,0x00               
00E862 00000000                 
00E866 00000000          71                             DB 0x00,0x00,0x00,0x00,0x00,0x00,0x00,0x00               
00E86A 00000000                 
00E86E 00000000          72                             DB 0x00,0x00,0x00,0x00,0x00,0x00,0x00,0x00               
00E872 00000000                 
                         73     
00E876 00000000          74                             DB 0x00,0x00,0x00,0x00                           
00E87A 00000000          75                             DB 0x00,0x00,0x00,0x00                           
00E87E 00                76                             DB 0x00                                          
00E87F 00                77                             DB 0x00                                          
                         78     
                         79                             
00E880 19                80                             DB 0x19                                                         
                                                        
00E881 4C555853          81                             DB 0x4C,0x55,0x58,0x53,0x48,0x41,0x52,0x45               
00E885 48415245                 
00E889 2D494354          82                             DB 0x2D,0x49,0x43,0x54,0x20,0x20,0x20,0x20       
00E88D 20202020                 
00E891 3C18A0            83                 DB 0x3C,0x18,0xA0                                
AX51 MACRO ASSEMBLER  FLASHTABLE                                                            04/07/20 13:59:09 PAGE     3

00E894 00000000          84                 DB 0x00,0x00,0x00,0x00,0x00,0x00,0x00,0x00       
00E898 00000000                 
00E89C 00000000          85                 DB 0x00,0x00,0x00,0x00,0x00,0x00,0x00,0x00       
00E8A0 00000000                 
00E8A4 0000              86                 DB 0x00,0x00                                     
00E8A6 00000000          87                 DB 0x00,0x00,0x00,0x00,0x00,0x00,0x00,0x00       
00E8AA 00000000                 
00E8AE 00000000          88                 DB 0x00,0x00,0x00,0x00,0x00,0x00,0x00,0x00       
00E8B2 00000000                 
00E8B6 00000000          89                 DB 0x00,0x00,0x00,0x00,0x00,0x00,0x00,0x00       
00E8BA 00000000                 
                         90     
00E8BE 00000000          91                 DB 0x00,0x00,0x00,0x00,0x00,0x00,0x00,0x00       
00E8C2 00000000                 
00E8C6 0000              92                 DB 0x00,0x00                                     
00E8C8 0000              93                             DB 0x00,0x00                                     
00E8CA 00                94                 DB 0x00                                                                     
                                        
00E8CB 00                95                 DB 0x00                                                                     
                                        
00E8CC 00000000          96                             DB 0x00,0x00,0x00,0x00,0x00,0x00                 
00E8D0 0000                     
00E8D2 0000              97                             DB 0x00,0x00                                     
00E8D4 00                98                             DB 0x00                                          
00E8D5 00000000          99                             DB 0x00,0x00,0x00,0x00,0x00,0x00,0x00,0x00       
00E8D9 00000000                 
                        100     
00E8DD 00               101                             DB 0x00                                          
00E8DE 00               102                             DB 0x00                                          
00E8DF 00               103                             DB 0x00                                          
00E8E0 00000000         104                             DB 0x00,0x00,0x00,0x00,0x00,0x00,0x00,0x00       
00E8E4 00000000                 
00E8E8 00000000         105                             DB 0x00,0x00,0x00,0x00,0x00,0x00,0x00,0x00       
00E8EC 00000000                 
00E8F0 00000000         106                             DB 0x00,0x00,0x00,0x00,0x00,0x00,0x00,0x00       
00E8F4 00000000                 
00E8F8 00000000         107                             DB 0x00,0x00,0x00,0x00,0x00,0x00,0x00,0x00       
00E8FC 00000000                 
                        108     
                        109     
                        110     
                        111     
00EA00                  112             CSEG    AT      0xEA00
                        113         PUBLIC          FS_QSFPDD_P1_Table
00EA00                  114     FS_QSFPDD_P1_Table:
                        115     
00EA00 0311             116                             DW 0x0311                                                       
                                                        
00EA02 0300             117                             DW 0x0300                                                       
                                                
00EA04 0000             118                             DW 0x0000                                                       
                                                        
00EA06 3223             119                             DW 0x3223                                                       
                                                
00EA08 0000             120                             DW 0x0000                                        
00EA0A 4268             121                             DW 0x4268                                        
00EA0C 07D0             122                             DW 0x07D0                                        
00EA0E 040A             123                             DW 0x040A                                        
                        124                                                                 
00EA10 8860             125                             DW 0x8860                                                       
                                                        
00EA12 4600             126                             DW 0x4600                                                       
                                                
AX51 MACRO ASSEMBLER  FLASHTABLE                                                            04/07/20 13:59:09 PAGE     4

00EA14 0000             127                             DW 0x0000                                                       
                                                        
00EA16 0000             128                             DW 0x0000                                                       
                                                
00EA18 0000             129                             DW 0x0000                                        
00EA1A 0000             130                             DW 0x0000                                        
00EA1C 0000             131                             DW 0x0000                                        
00EA1E 0000             132                             DW 0x0000                                        
                        133     
00EA20 0000             134                             DW 0x0000                                        
00EA22 0000             135                             DW 0x0000                                        
00EA24 0000             136                             DW 0x0000                                        
00EA26 0000             137                             DW 0x0000                                        
00EA28 0000             138                             DW 0x0000                                        
00EA2A 0000             139                             DW 0x0000                                        
00EA2C 0000             140                             DW 0x0000                                        
00EA2E 0000             141                             DW 0x0000                                        
                        142     
00EA30 0111             143                             DW 0x0111                                                       
                                                        
00EA32 FF01             144                             DW 0xFF01                                                       
                                                
00EA34 11FF             145                             DW 0x11FF                                                       
                                                        
00EA36 0000             146                             DW 0x0000                                                       
                                                
                        147     
00EA38 0000             148                             DW 0x0000                                                       
                                                        
00EA3A 0000             149                             DW 0x0000                                                       
                                                
00EA3C 0000             150                             DW 0x0000                                                       
                                                        
00EA3E 0000             151                             DW 0x0000                                                       
                                                
                        152     
00EA40 0000             153                             DW 0x0000                                                       
                                                        
00EA42 0000             154                             DW 0x0000                                                       
                                                
00EA44 0000             155                             DW 0x0000                                                       
                                                        
00EA46 0000             156                             DW 0x0000                                                       
                                                
                        157     
00EA48 0000             158                             DW 0x0000                                        
00EA4A 0000             159                             DW 0x0000                                        
00EA4C 0000             160                             DW 0x0000                                        
00EA4E 0000             161                             DW 0x0000                                        
                        162     
00EA50 0000             163                             DW 0x0000                                        
00EA52 0000             164                             DW 0x0000                                        
00EA54 0000             165                             DW 0x0000                                        
00EA56 0000             166                             DW 0x0000                                        
00EA58 0000             167                             DW 0x0000                                        
00EA5A 0000             168                             DW 0x0000                                        
00EA5C 0000             169                             DW 0x0000                                        
00EA5E 0000             170                             DW 0x0000                                        
                        171     
00EA60 00               172                             DB 0x00                                          
00EA61 00               173                             DB 0x00                                          
00EA62 00               174                             DB 0x00                                          
00EA63 00               175                             DB 0x00                                          
AX51 MACRO ASSEMBLER  FLASHTABLE                                                            04/07/20 13:59:09 PAGE     5

00EA64 00               176                             DB 0x00                                          
00EA65 00               177                             DB 0x00                                          
00EA66 00               178                             DB 0x00                                          
00EA67 00               179                             DB 0x00                                          
00EA68 00               180                             DB 0x00                                          
00EA69 00               181                             DB 0x00                                          
00EA6A 00               182                             DB 0x00                                          
00EA6B 00               183                             DB 0x00                                          
00EA6C 00               184                             DB 0x00                                          
00EA6D 00               185                             DB 0x00                                          
00EA6E 00               186                             DB 0x00                                          
00EA6F 00               187                             DB 0x00                                          
00EA70 00               188                             DB 0x00                                          
00EA71 00               189                             DB 0x00                                          
00EA72 00               190                             DB 0x00                                          
00EA73 00               191                             DB 0x00                                          
00EA74 00               192                         DB 0x00                                          
00EA75 00               193                         DB 0x00                                          
00EA76 00               194                             DB 0x00                                                         
                                                        
00EA77 00               195                             DB 0x00                                          
00EA78 00000000         196                             DB 0x00,0x00,0x00,0x00,0x00,0x00                 
00EA7C 0000                     
00EA7E 0011             197                             DB 0x00,0x11                                     
                        198                             
00EA80 8000             199                             DW 0x8000                                                       
                                                        
00EA82 0000             200                             DW 0x0000                                                       
                                                
00EA84 0000             201                             DW 0x0000                                                       
                                                        
00EA86 0000             202                             DW 0x0000                                                       
                                                
00EA88 0000             203                             DW 0x0000                                        
00EA8A 0000             204                             DW 0x0000                                        
00EA8C 0000             205                             DW 0x0000                                        
00EA8E 0000             206                             DW 0x0000                                        
                        207     
00EA90 0000             208                             DW 0x0000                                                       
                                                        
00EA92 0000             209                             DW 0x0000                                                       
                                                
00EA94 0000             210                             DW 0x0000                                                       
                                                        
00EA96 0000             211                             DW 0x0000                                                       
                                                
00EA98 0000             212                             DW 0x0000                                        
00EA9A 0000             213                             DW 0x0000                                        
00EA9C 0000             214                             DW 0x0000                                        
00EA9E 0000             215                             DW 0x0000                                        
                        216     
00EAA0 0000             217                             DW 0x0000                                        
00EAA2 0000             218                             DW 0x0000                                        
00EAA4 0000             219                             DW 0x0000                                        
00EAA6 0000             220                             DW 0x0000                                        
00EAA8 0000             221                             DW 0x0000                                        
00EAAA 0000             222                             DW 0x0000                                        
00EAAC 0000             223                             DW 0x0000                                        
00EAAE 0000             224                             DW 0x0000                                        
                        225     
00EAB0 0000             226                             DW 0x0000                                                       
                                                        
00EAB2 0000             227                             DW 0x0000                                                       
AX51 MACRO ASSEMBLER  FLASHTABLE                                                            04/07/20 13:59:09 PAGE     6

                                                
00EAB4 0000             228                             DW 0x0000                                                       
                                                        
00EAB6 0000             229                             DW 0x0000                                                       
                                                
                        230     
00EAB8 0000             231                             DW 0x0000                                                       
                                                        
00EABA 0000             232                             DW 0x0000                                                       
                                                
00EABC 0000             233                             DW 0x0000                                                       
                                                        
00EABE 0000             234                             DW 0x0000                                                       
                                                
                        235     
00EAC0 0000             236                             DW 0x0000                                                       
                                                        
00EAC2 0000             237                             DW 0x0000                                                       
                                                
00EAC4 0000             238                             DW 0x0000                                                       
                                                        
00EAC6 0000             239                             DW 0x0000                                                       
                                                
                        240     
00EAC8 0000             241                             DW 0x0000                                        
00EACA 0000             242                             DW 0x0000                                        
00EACC 0000             243                             DW 0x0000                                        
00EACE 0000             244                             DW 0x0000                                        
                        245     
00EAD0 0000             246                             DW 0x0000                                        
00EAD2 0000             247                             DW 0x0000                                        
00EAD4 0000             248                             DW 0x0000                                        
00EAD6 0000             249                             DW 0x0000                                        
00EAD8 0000             250                             DW 0x0000                                        
00EADA 0000             251                             DW 0x0000                                        
00EADC 0000             252                             DW 0x0000                                        
00EADE 0000             253                             DW 0x0000                                        
                        254     
00EAE0 00               255                             DB 0x00                                          
00EAE1 00               256                             DB 0x00                                          
00EAE2 00               257                             DB 0x00                                          
00EAE3 00               258                             DB 0x00                                          
00EAE4 00               259                             DB 0x00                                          
00EAE5 00               260                             DB 0x00                                          
00EAE6 00               261                             DB 0x00                                          
00EAE7 00               262                             DB 0x00                                          
00EAE8 00               263                             DB 0x00                                          
00EAE9 00               264                             DB 0x00                                          
00EAEA 00               265                             DB 0x00                                          
00EAEB 00               266                             DB 0x00                                          
00EAEC 00               267                             DB 0x00                                          
00EAED 00               268                             DB 0x00                                          
00EAEE 00               269                             DB 0x00                                          
00EAEF 00               270                             DB 0x00                                          
00EAF0 00               271                             DB 0x00                                          
00EAF1 00               272                             DB 0x00                                          
00EAF2 00               273                             DB 0x00                                          
00EAF3 00               274                             DB 0x00                                          
00EAF4 00               275                         DB 0x00                                          
00EAF5 00               276                         DB 0x00                                          
00EAF6 00               277                             DB 0x00                                                         
                                                        
00EAF7 00               278                             DB 0x00                                          
AX51 MACRO ASSEMBLER  FLASHTABLE                                                            04/07/20 13:59:09 PAGE     7

00EAF8 00000000         279                             DB 0x00,0x00,0x00,0x00,0x00,0x00                 
00EAFC 0000                     
00EAFE 0000             280                             DB 0x00,0x00                                     
                        281     
                        282     
                        283     
                        284     
00EC00                  285             CSEG    AT      0xEC00
                        286         PUBLIC          FS_Calibration_Table
00EC00                  287     FS_Calibration_Table:
                        288     
                        289                             
00EC00 01               290                             DB 0x01                                                         
                                                        
00EC01 00               291                             DB 0x00                                                         
                                                
00EC02 0000             292                             DW 0x0000                                        
00EC04 01               293                             DB 0x01                                                         
                                                        
00EC05 00               294                             DB 0x00                                                         
                                                
00EC06 00               295                             DB 0x00                                          
00EC07 01               296                             DB 0x01                                                         
                                                        
00EC08 00               297                             DB 0x00                                                         
                                                
00EC09 0000             298                             DW 0x0000                                        
00EC0B 01               299                             DB 0x01                                                         
                                                        
00EC0C 00               300                             DB 0x00                                                         
                                                
00EC0D 0000             301                             DW 0x0000                                        
00EC0F 01               302                             DB 0x01                                                         
                                                        
00EC10 00               303                             DB 0x00                                                         
                                                
00EC11 0000             304                             DW 0x0000                                        
00EC13 01               305                             DB 0x01                                                         
                                                        
00EC14 00               306                             DB 0x00                                                         
                                                
00EC15 0000             307                             DW 0x0000                                        
00EC17 01               308                             DB 0x01                                                         
                                                        
00EC18 00               309                             DB 0x00                                                         
                                                
00EC19 0000             310                             DW 0x0000                                        
00EC1B 01               311                             DB 0x01                                                         
                                                        
00EC1C 00               312                             DB 0x00                                                         
                                                
00EC1D 0000             313                             DW 0x0000                                        
00EC1F 01               314                             DB 0x01                                                         
                                                        
00EC20 00               315                             DB 0x00                                                         
                                                
00EC21 0000             316                             DW 0x0000                                        
00EC23 01               317                             DB 0x01                                                         
                                                        
00EC24 00               318                             DB 0x00                                                         
                                                
00EC25 0000             319                             DW 0x0000                                        
00EC27 01               320                             DB 0x01                                                         
AX51 MACRO ASSEMBLER  FLASHTABLE                                                            04/07/20 13:59:09 PAGE     8

                                                        
00EC28 00               321                             DB 0x00                                                         
                                                
00EC29 0000             322                             DW 0x0000                                        
00EC2B 01               323                             DB 0x01                                                         
                                                        
00EC2C 00               324                             DB 0x00                                                         
                                                
00EC2D 0000             325                             DW 0x0000                                        
00EC2F 01               326                             DB 0x01                                                         
                                                        
00EC30 00               327                             DB 0x00                                                         
                                                
00EC31 0000             328                             DW 0x0000                                        
00EC33 01               329                             DB 0x01                                                         
                                                        
00EC34 00               330                             DB 0x00                                                         
                                                
00EC35 0000             331                             DW 0x0000                                        
00EC37 0080             332                             DW 0x0080                                        
00EC39 0100             333                             DW 0x0100                                        
00EC3B 0080             334                             DW 0x0080                                        
00EC3D 0100             335                             DW 0x0100                                        
00EC3F 0080             336                             DW 0x0080                                        
00EC41 0100             337                             DW 0x0100                                        
00EC43 0080             338                             DW 0x0080                                        
00EC45 0100             339                             DW 0x0100                                        
                        340     
00EC47 46               341                             DB 0x46                                          
00EC48 00               342                             DB 0x00                                          
                        343     
00EC49 01               344                             DB 0x01                                          
00EC4A 00               345                             DB 0x00                                          
00EC4B 01               346                             DB 0x01                                          
00EC4C 00010000         347                             DB 0x00,0x01,0x00,0x00                           
00EC50 00222222         348                             DB 0x00,0x22,0x22,0x22,0x22,0x33,0x33,0x33       
00EC54 22333333                 
00EC58 33555555         349                             DB 0x33,0x55,0x55,0x55,0x55,0x00,0x00,0x00       
00EC5C 55000000                 
00EC60 00000000         350                             DB 0x00,0x00,0x00,0x00,0x00,0x00,0x00,0x00       
00EC64 00000000                 
00EC68 00000000         351                             DB 0x00,0x00,0x00,0x00,0x00,0x00,0x00,0x00       
00EC6C 00000000                 
00EC70 00000000         352                             DB 0x00,0x00,0x00,0x00,0x00,0x00,0x00,0x00       
00EC74 00000000                 
00EC78 00000000         353                             DB 0x00,0x00,0x00,0x00,0x00,0x00,0x00,0x00       
00EC7C 00000000                 
                        354     
                        355     
                        356     
                        357                             
00EC80 01               358                             DB 0x01                                                         
                                                        
00EC81 00               359                             DB 0x00                                                         
                                                
00EC82 0000             360                             DW 0x0000                                        
00EC84 01               361                             DB 0x01                                                         
                                                        
00EC85 00               362                             DB 0x00                                                         
                                                
00EC86 00               363                             DB 0x00                                          
00EC87 01               364                             DB 0x01                                                         
                                                        
AX51 MACRO ASSEMBLER  FLASHTABLE                                                            04/07/20 13:59:09 PAGE     9

00EC88 00               365                             DB 0x00                                                         
                                                
00EC89 0000             366                             DW 0x0000                                        
00EC8B 01               367                             DB 0x01                                                         
                                                        
00EC8C 00               368                             DB 0x00                                                         
                                                
00EC8D 0000             369                             DW 0x0000                                        
00EC8F 01               370                             DB 0x01                                                         
                                                        
00EC90 00               371                             DB 0x00                                                         
                                                
00EC91 0000             372                             DW 0x0000                                        
00EC93 01               373                             DB 0x01                                                         
                                                        
00EC94 00               374                             DB 0x00                                                         
                                                
00EC95 0000             375                             DW 0x0000                                        
00EC97 01               376                             DB 0x01                                                         
                                                        
00EC98 00               377                             DB 0x00                                                         
                                                
00EC99 0000             378                             DW 0x0000                                        
00EC9B 01               379                             DB 0x01                                                         
                                                        
00EC9C 00               380                             DB 0x00                                                         
                                                
00EC9D 0000             381                             DW 0x0000                                        
00EC9F 01               382                             DB 0x01                                                         
                                                        
00ECA0 00               383                             DB 0x00                                                         
                                                
00ECA1 0000             384                             DW 0x0000                                        
00ECA3 01               385                             DB 0x01                                                         
                                                        
00ECA4 00               386                             DB 0x00                                                         
                                                
00ECA5 0000             387                             DW 0x0000                                        
00ECA7 01               388                             DB 0x01                                                         
                                                        
00ECA8 00               389                             DB 0x00                                                         
                                                
00ECA9 0000             390                             DW 0x0000                                        
00ECAB 01               391                             DB 0x01                                                         
                                                        
00ECAC 00               392                             DB 0x00                                                         
                                                
00ECAD 0000             393                             DW 0x0000                                        
00ECAF 01               394                             DB 0x01                                                         
                                                        
00ECB0 00               395                             DB 0x00                                                         
                                                
00ECB1 0000             396                             DW 0x0000                                        
00ECB3 01               397                             DB 0x01                                                         
                                                        
00ECB4 00               398                             DB 0x00                                                         
                                                
00ECB5 0000             399                             DW 0x0000                                        
00ECB7 0080             400                             DW 0x0080                                        
00ECB9 0100             401                             DW 0x0100                                        
00ECBB 0080             402                             DW 0x0080                                        
00ECBD 0100             403                             DW 0x0100                                        
00ECBF 0080             404                             DW 0x0080                                        
AX51 MACRO ASSEMBLER  FLASHTABLE                                                            04/07/20 13:59:09 PAGE    10

00ECC1 0100             405                             DW 0x0100                                        
00ECC3 0080             406                             DW 0x0080                                        
00ECC5 0100             407                             DW 0x0100                                        
                        408     
00ECC7 00               409                             DB 0x00                                          
00ECC8 00               410                             DB 0x00                                          
00ECC9 00               411                             DB 0x00                                          
00ECCA 00               412                             DB 0x00                                          
00ECCB 00               413                             DB 0x00                                          
00ECCC 00000000         414                             DB 0x00,0x00,0x00,0x00                           
00ECD0 00000000         415                             DB 0x00,0x00,0x00,0x00,0x00,0x00,0x00,0x00       
00ECD4 00000000                 
00ECD8 00000000         416                             DB 0x00,0x00,0x00,0x00,0x00,0x00,0x00,0x00       
00ECDC 00000000                 
00ECE0 00000000         417                             DB 0x00,0x00,0x00,0x00,0x00,0x00,0x00,0x00       
00ECE4 00000000                 
00ECE8 00000000         418                             DB 0x00,0x00,0x00,0x00,0x00,0x00,0x00,0x00       
00ECEC 00000000                 
00ECF0 00000000         419                             DB 0x00,0x00,0x00,0x00,0x00,0x00,0x00,0x00       
00ECF4 00000000                 
00ECF8 00000000         420                             DB 0x00,0x00,0x00,0x00,0x00,0x00,0x00,0x00       
00ECFC 00000000                 
                        421     
                        422     
                        423     
                        424     
00EE00                  425             CSEG    AT      0xEE00
                        426         PUBLIC          FS_MSA_Option_Table
00EE00                  427     FS_MSA_Option_Table:
                        428                             
00EE00 0C               429                             DB 0x0C                                                         
                                                        
00EE01 13               430                             DB 0x13                                                         
                                                
00EE02 16               431                             DB 0x16                                                         
                                                        
00EE03 19               432                             DB 0x19                                                         
                                                
00EE04 1C               433                             DB 0x1C                                                         
                                                
00EE05 1F               434                             DB 0x1F                                                         
                                                        
00EE06 23               435                             DB 0x23                                                         
                                                
00EE07 26               436                             DB 0x26                                                         
                                                
00EE08 29               437                             DB 0x29                                                         
                                                
00EE09 2C               438                             DB 0x2C                                                         
                                                        
00EE0A 2F               439                             DB 0x2F                                                         
                                                
00EE0B 32               440                             DB 0x32                                                         
                                                
00EE0C 36               441                             DB 0x36                                                         
                                                
00EE0D 39               442                             DB 0x39                                                         
                                                
00EE0E 3C               443                             DB 0x3C                                                         
                                                        
00EE0F 3F               444                             DB 0x3F                                                         
                                                
00EE10 00               445                             DB 0x00                                                         
AX51 MACRO ASSEMBLER  FLASHTABLE                                                            04/07/20 13:59:09 PAGE    11

                                                
00EE11 FC               446                             DB 0xFC                                                         
                                                        
00EE12 F8               447                             DB 0xF8                                                         
                                                
00EE13 F4               448                             DB 0xF4                                                         
                                                
00EE14 F0               449                             DB 0xF0                                                         
                                                        
00EE15 EC               450                             DB 0xEC                                                         
                                                
00EE16 E8               451                             DB 0xE8                                                         
                                                
00EE17 E4               452                             DB 0xE4                                                         
                                                
00EE18 E4               453                             DB 0xE4                                                         
                                                        
00EE19 E4               454                             DB 0xE4                                                         
                                                
00EE1A E4               455                             DB 0xE4                                                         
                                                
00EE1B 00               456                             DB 0x00                                                         
                                                
00EE1C 00               457                             DB 0x00                                                         
                                                
00EE1D 00               458                             DB 0x00                                                         
                                                        
00EE1E 00               459                             DB 0x00                                                         
                                                
00EE1F 00               460                             DB 0x00                                                         
                                                
00EE20 50               461                             DB 0x50                                                         
                                                
00EE21 64               462                             DB 0x64                                                         
                                                        
00EE22 7C               463                             DB 0x7C                                                         
                                                
00EE23 94               464                             DB 0x94                                                         
                                                
00EE24 00               465                             DB 0x00                                                         
                                                        
00EE25 00               466                             DB 0x00                                                         
                                                
00EE26 00               467                             DB 0x00                                                         
                                                
00EE27 00               468                             DB 0x00                                                         
                                                
00EE28 00               469                             DB 0x00                                                         
                                                        
00EE29 00               470                             DB 0x00                                                         
                                                
00EE2A 00               471                             DB 0x00                                                         
                                                
00EE2B 00               472                             DB 0x00                                                         
                                                
00EE2C 00               473                             DB 0x00                                                         
                                                
00EE2D 00               474                             DB 0x00                                                         
                                                        
00EE2E 00               475                             DB 0x00                                                         
                                                
00EE2F 00               476                             DB 0x00                                          
                        477     
AX51 MACRO ASSEMBLER  FLASHTABLE                                                            04/07/20 13:59:09 PAGE    12

00EE30 9378CCAE         478                             DB 0x93,0x78,0xCC,0xAE,0x00,0x00,0x00,0x00       
00EE34 00000000                 
00EE38 00000000         479                             DB 0x00,0x00,0x00,0x00,0x00,0x00,0x00,0x00       
00EE3C 00000000                 
                        480     
00EE40 00               481                             DB 0x00                                                         
                                                
00EE41 FC               482                             DB 0xFC                                                         
                                                        
00EE42 F8               483                             DB 0xF8                                                         
                                                
00EE43 F4               484                             DB 0xF4                                                         
                                                
00EE44 F0               485                             DB 0xF0                                                         
                                                        
00EE45 EC               486                             DB 0xEC                                                         
                                                
00EE46 E8               487                             DB 0xE8                                                         
                                                
00EE47 E4               488                             DB 0xE4                                                         
                                                
00EE48 E4               489                             DB 0xE4                                                         
                                                        
00EE49 E4               490                             DB 0xE4                                                         
                                                
00EE4A E4               491                             DB 0xE4                                                         
                                                
00EE4B 00               492                             DB 0x00                                                         
                                                
00EE4C 00               493                             DB 0x00                                                         
                                                
00EE4D 00               494                             DB 0x00                                                         
                                                        
00EE4E 00               495                             DB 0x00                                                         
                                                
00EE4F 00               496                             DB 0x00                                                         
                                                
                        497     
00EE50 00000000         498                             DB 0x00,0x00,0x00,0x00,0x00,0x00,0x00,0x00       
00EE54 00000000                 
00EE58 00000000         499                             DB 0x00,0x00,0x00,0x00,0x00,0x00,0x00,0x00       
00EE5C 00000000                 
00EE60 00000000         500                             DB 0x00,0x00,0x00,0x00,0x00,0x00,0x00,0x00       
00EE64 00000000                 
00EE68 00000000         501                             DB 0x00,0x00,0x00,0x00,0x00,0x00,0x00,0x00       
00EE6C 00000000                 
00EE70 00000000         502                             DB 0x00,0x00,0x00,0x00,0x00,0x00,0x00,0x00       
00EE74 00000000                 
00EE78 00000000         503                             DB 0x00,0x00,0x00,0x00,0x00,0x00,0x00,0x00       
00EE7C 00000000                 
                        504     
                        505     
                        506     
                        507     
00F000                  508             CSEG    AT      0xF000
                        509             PUBLIC          FS_MA38345_P82_Table
00F000                  510     FS_MA38345_P82_Table:
00F000 00               511                             DB 0x00                                          
00F001 00               512                             DB 0x00                                          
00F002 00               513                             DB 0x00                                          
00F003 00               514                             DB 0x00                                                         
                                                        
00F004 00               515                             DB 0x00                                          
AX51 MACRO ASSEMBLER  FLASHTABLE                                                            04/07/20 13:59:09 PAGE    13

00F005 00               516                             DB 0x00                                          
00F006 00               517                             DB 0x00                                                         
                                                        
00F007 00000000         518                             DB 0x00,0x00,0x00,0x00                                          
                                        
                        519     
00F00B 00               520                             DB 0x00                                                         
                                                        
00F00C 00               521                             DB 0x00                                                         
                                                        
00F00D 04               522                             DB 0x04                                                         
                                                        
00F00E 00               523                             DB 0x00                                                         
                                                        
00F00F 00               524                             DB 0x00                                                         
                                                        
00F010 FF               525                             DB 0xFF                                                         
                                                        
00F011 00               526                             DB 0x00                                                         
                                                        
00F012 FF               527                             DB 0xFF                                                         
                                                        
00F013 00               528                             DB 0x00                                                         
                                                        
00F014 70               529                             DB 0x70                                                         
                                                        
00F015 08               530                             DB 0x08                                                         
                                                        
00F016 00               531                             DB 0x00                                                         
                                                        
00F017 00               532                             DB 0x00                                                         
                                                        
00F018 0A               533                             DB 0x0A                                                         
                                                        
00F019 0A               534                             DB 0x0A                                                         
                                                        
00F01A 0A               535                             DB 0x0A                                                         
                                                        
00F01B 0A               536                             DB 0x0A                                                         
                                                        
00F01C 0F               537                             DB 0x0F                                                         
                                                        
00F01D F0               538                             DB 0xF0                                                         
                                                        
00F01E 00               539                             DB 0x00                                                         
                                                        
00F01F 28               540                             DB 0x28                                                         
                                                        
00F020 28               541                             DB 0x28                                                         
                                                        
00F021 28               542                             DB 0x28                                                         
                                                        
00F022 28               543                             DB 0x28                                                         
                                                        
00F023 63               544                             DB 0x63                                                         
                                                        
00F024 63               545                             DB 0x63                                                         
                                                        
00F025 63               546                             DB 0x63                                                         
                                                        
00F026 63               547                             DB 0x63                                                         
                                                        
00F027 00               548                             DB 0x00                                                         
AX51 MACRO ASSEMBLER  FLASHTABLE                                                            04/07/20 13:59:09 PAGE    14

                                                        
00F028 00               549                             DB 0x00                                                         
                                                        
00F029 00               550                             DB 0x00                                                         
                                                        
00F02A 00               551                             DB 0x00                                                         
                                                        
00F02B 23               552                             DB 0x23                                                         
                                                        
00F02C 23               553                             DB 0x23                                                         
                                                        
00F02D 23               554                             DB 0x23                                                         
                                                        
00F02E 23               555                             DB 0x23                                                         
                                                        
00F02F 04               556                             DB 0x04                                                         
                                                        
00F030 00               557                             DB 0x00                                                         
                                                        
00F031 00               558                             DB 0x00                                          
00F032 10               559                             DB 0x10                                          
00F033 00               560                             DB 0x00                                          
00F034 08               561                             DB 0x08                                          
00F035 00               562                             DB 0x00                                          
00F036 00               563                             DB 0x00                                          
                        564     
00F037 00               565                             DB 0x00                                          
00F038 00000000         566                             DB 0x00,0x00,0x00,0x00,0x00,0x00,0x00,0x00       
00F03C 00000000                 
00F040 00000000         567                             DB 0x00,0x00,0x00,0x00,0x00,0x00,0x00,0x00       
00F044 00000000                 
00F048 00000000         568                             DB 0x00,0x00,0x00,0x00,0x00,0x00,0x00,0x00       
00F04C 00000000                 
00F050 00000000         569                             DB 0x00,0x00,0x00,0x00,0x00,0x00,0x00,0x00       
00F054 00000000                 
00F058 00000000         570                             DB 0x00,0x00,0x00,0x00,0x00,0x00,0x00,0x00       
00F05C 00000000                 
00F060 00000000         571                             DB 0x00,0x00,0x00,0x00,0x00,0x00,0x00,0x00       
00F064 00000000                 
00F068 00000000         572                             DB 0x00,0x00,0x00,0x00,0x00,0x00,0x00,0x00       
00F06C 00000000                 
00F070 00000000         573                             DB 0x00,0x00,0x00,0x00,0x00,0x00,0x00,0x00       
00F074 00000000                 
00F078 00000000         574                             DB 0x00,0x00,0x00,0x00,0x00,0x00,0x00,0x00       
00F07C 00000000                 
                        575     
                        576     
                        577     
00F080 00               578                             DB 0x00                                          
00F081 00               579                             DB 0x00                                          
00F082 00               580                             DB 0x00                                          
00F083 00               581                             DB 0x00                                                         
                                                        
00F084 00               582                             DB 0x00                                          
00F085 00               583                             DB 0x00                                          
00F086 00               584                             DB 0x00                                                         
                                                        
00F087 00000000         585                             DB 0x00,0x00,0x00,0x00                                          
                                        
                        586     
00F08B 00               587                             DB 0x00                                                         
                                                        
00F08C 00               588                             DB 0x00                                                         
AX51 MACRO ASSEMBLER  FLASHTABLE                                                            04/07/20 13:59:09 PAGE    15

                                                        
00F08D 04               589                             DB 0x04                                                         
                                                        
00F08E 00               590                             DB 0x00                                                         
                                                        
00F08F 00               591                             DB 0x00                                                         
                                                        
00F090 FF               592                             DB 0xFF                                                         
                                                        
00F091 00               593                             DB 0x00                                                         
                                                        
00F092 FF               594                             DB 0xFF                                                         
                                                        
00F093 00               595                             DB 0x00                                                         
                                                        
00F094 70               596                             DB 0x70                                                         
                                                        
00F095 08               597                             DB 0x08                                                         
                                                        
00F096 00               598                             DB 0x00                                                         
                                                        
00F097 00               599                             DB 0x00                                                         
                                                        
00F098 0A               600                             DB 0x0A                                                         
                                                        
00F099 0A               601                             DB 0x0A                                                         
                                                        
00F09A 0A               602                             DB 0x0A                                                         
                                                        
00F09B 0A               603                             DB 0x0A                                                         
                                                        
00F09C 0F               604                             DB 0x0F                                                         
                                                        
00F09D F0               605                             DB 0xF0                                                         
                                                        
00F09E 00               606                             DB 0x00                                                         
                                                        
00F09F 28               607                             DB 0x28                                                         
                                                        
00F0A0 28               608                             DB 0x28                                                         
                                                        
00F0A1 28               609                             DB 0x28                                                         
                                                        
00F0A2 28               610                             DB 0x28                                                         
                                                        
00F0A3 63               611                             DB 0x63                                                         
                                                        
00F0A4 63               612                             DB 0x63                                                         
                                                        
00F0A5 63               613                             DB 0x63                                                         
                                                        
00F0A6 63               614                             DB 0x63                                                         
                                                        
00F0A7 00               615                             DB 0x00                                                         
                                                        
00F0A8 00               616                             DB 0x00                                                         
                                                        
00F0A9 00               617                             DB 0x00                                                         
                                                        
00F0AA 00               618                             DB 0x00                                                         
                                                        
00F0AB 23               619                             DB 0x23                                                         
                                                        
AX51 MACRO ASSEMBLER  FLASHTABLE                                                            04/07/20 13:59:09 PAGE    16

00F0AC 23               620                             DB 0x23                                                         
                                                        
00F0AD 23               621                             DB 0x23                                                         
                                                        
00F0AE 23               622                             DB 0x23                                                         
                                                        
00F0AF 04               623                             DB 0x04                                                         
                                                        
00F0B0 00               624                             DB 0x00                                                         
                                                        
00F0B1 00               625                             DB 0x00                                          
00F0B2 10               626                             DB 0x10                                          
00F0B3 00               627                             DB 0x00                                          
00F0B4 08               628                             DB 0x08                                          
00F0B5 00               629                             DB 0x00                                          
00F0B6 00               630                             DB 0x00                                          
                        631     
00F0B7 00               632                             DB 0x00                                          
00F0B8 00000000         633                             DB 0x00,0x00,0x00,0x00,0x00,0x00,0x00,0x00       
00F0BC 00000000                 
00F0C0 00000000         634                             DB 0x00,0x00,0x00,0x00,0x00,0x00,0x00,0x00       
00F0C4 00000000                 
00F0C8 00000000         635                             DB 0x00,0x00,0x00,0x00,0x00,0x00,0x00,0x00       
00F0CC 00000000                 
00F0D0 00000000         636                             DB 0x00,0x00,0x00,0x00,0x00,0x00,0x00,0x00       
00F0D4 00000000                 
00F0D8 00000000         637                             DB 0x00,0x00,0x00,0x00,0x00,0x00,0x00,0x00       
00F0DC 00000000                 
00F0E0 00000000         638                             DB 0x00,0x00,0x00,0x00,0x00,0x00,0x00,0x00       
00F0E4 00000000                 
00F0E8 00000000         639                             DB 0x00,0x00,0x00,0x00,0x00,0x00,0x00,0x00       
00F0EC 00000000                 
00F0F0 00000000         640                             DB 0x00,0x00,0x00,0x00,0x00,0x00,0x00,0x00       
00F0F4 00000000                 
00F0F8 00000000         641                             DB 0x00,0x00,0x00,0x00,0x00,0x00,0x00,0x00       
00F0FC 00000000                 
                        642     
                        643     
                        644     
                        645     
00F200                  646             CSEG    AT      0xF200
                        647             PUBLIC          FS_59281PHY0_LS_P86_Table
00F200                  648     FS_59281PHY0_LS_P86_Table:
00F200 4A00             649                             DW 0x4A00                                                       
                                                        
00F202 0001             650                             DW 0x0001                                                       
                                                        
00F204 FFF4             651                             DW 0xFFF4                                                       
                                                        
00F206 FFF4             652                             DW 0xFFF4                                                       
                                                        
00F208 FFF4             653                             DW 0xFFF4                                                       
                                                        
00F20A FFF4             654                             DW 0xFFF4                                                       
                                                        
00F20C 0080             655                             DW 0x0080                                                       
                                                        
00F20E 0080             656                             DW 0x0080                                                       
                                                        
00F210 0080             657                             DW 0x0080                                                       
                                                        
00F212 0080             658                             DW 0x0080                                                       
                                                        
AX51 MACRO ASSEMBLER  FLASHTABLE                                                            04/07/20 13:59:09 PAGE    17

00F214 0000             659                             DW 0x0000                                                       
                                                        
00F216 0000             660                             DW 0x0000                                                       
                                                        
00F218 0000             661                             DW 0x0000                                                       
                                                        
00F21A 0000             662                             DW 0x0000                                                       
                                                        
00F21C 0000             663                             DW 0x0000                                                       
                                                        
00F21E 0000             664                             DW 0x0000                                                       
                                                        
00F220 0000             665                             DW 0x0000                                                       
                                                        
00F222 0000             666                             DW 0x0000                                                       
                                                        
00F224 0000             667                             DW 0x0000                                                       
                                                        
00F226 0000             668                             DW 0x0000                                                       
                                                        
00F228 0000             669                             DW 0x0000                                                       
                                                        
00F22A 0000             670                             DW 0x0000                                                       
                                                        
00F22C 1000             671                             DW 0x1000                                                       
                                                        
00F22E 1000             672                             DW 0x1000                                                       
                                                        
00F230 1000             673                             DW 0x1000                                                       
                                                        
00F232 1000             674                             DW 0x1000                                                       
                                                        
00F234 0010             675                             DW 0x0010                                                       
                                                        
00F236 0011             676                             DW 0x0011                                                       
                                                        
00F238 0010             677                             DW 0x0010                                                       
                                                        
00F23A 0011             678                             DW 0x0011                                                       
                                                        
00F23C 0020             679                             DW 0x0020                                                       
                                                        
00F23E 0020             680                             DW 0x0020                                                       
                                                        
00F240 0020             681                             DW 0x0020                                                       
                                                        
00F242 0030             682                             DW 0x0030                                                       
                                                        
00F244 8000             683                             DW 0x8000                                                       
                                                        
00F246 0004             684                             DW 0x0004                                                       
                                                        
00F248 8004             685                             DW 0x8004                                                       
                                                        
00F24A 0000             686                             DW 0x0000                                                       
                                                        
00F24C 8000             687                             DW 0x8000                                                       
                                                        
00F24E 0004             688                             DW 0x0004                                                       
                                                        
00F250 8004             689                             DW 0x8004                                                       
                                                        
00F252 0000             690                             DW 0x0000                                                       
AX51 MACRO ASSEMBLER  FLASHTABLE                                                            04/07/20 13:59:09 PAGE    18

                                                        
                        691     
00F254 01F1             692                             DW 0x01F1                                            
00F256 01F1             693                             DW 0x01F1                                            
00F258 01F1             694                             DW 0x01F1                                            
00F25A 01F1             695                             DW 0x01F1                                            
                        696     
00F25C 0000             697                             DW 0x0000                                            
00F25E 0000             698                             DW 0x0000                                            
00F260 0000             699                             DW 0x0000                                            
00F262 0000             700                             DW 0x0000                                            
00F264 0000             701                             DW 0x0000                                            
00F266 0000             702                             DW 0x0000                                            
00F268 0000             703                             DW 0x0000                                            
00F26A 0000             704                             DW 0x0000                                            
00F26C 0000             705                             DW 0x0000                                            
00F26E 0000             706                             DW 0x0000                                            
00F270 0000             707                             DW 0x0000                                            
00F272 0000             708                             DW 0x0000                                            
00F274 0000             709                             DW 0x0000                                            
00F276 0000             710                             DW 0x0000                                            
00F278 0000             711                             DW 0x0000                                            
00F27A 0000             712                             DW 0x0000                                            
00F27C 0000             713                             DW 0x0000                                            
00F27E 0000             714                             DW 0x0000                                            
                        715     
                        716     
                        717     
00F280 FFEC             718                             DW 0xFFEC                                                       
                                                        
00F282 FFEC             719                             DW 0xFFEC                                                       
                                                        
00F284 FFEC             720                             DW 0xFFEC                                                       
                                                        
00F286 FFEC             721                             DW 0xFFEC                                                       
                                                        
00F288 0094             722                             DW 0x0094                                                       
                                                        
00F28A 0094             723                             DW 0x0094                                                       
                                                        
00F28C 0094             724                             DW 0x0094                                                       
                                                        
00F28E 0094             725                             DW 0x0094                                                       
                                                        
00F290 0000             726                             DW 0x0000                                                       
                                                        
00F292 0000             727                             DW 0x0000                                                       
                                                        
00F294 0000             728                             DW 0x0000                                                       
                                                        
00F296 0000             729                             DW 0x0000                                                       
                                                        
00F298 0000             730                             DW 0x0000                                                       
                                                        
00F29A 0000             731                             DW 0x0000                                                       
                                                        
00F29C 0000             732                             DW 0x0000                                                       
                                                        
00F29E 0000             733                             DW 0x0000                                                       
                                                        
00F2A0 0000             734                             DW 0x0000                                                       
                                                        
00F2A2 0000             735                             DW 0x0000                                                       
AX51 MACRO ASSEMBLER  FLASHTABLE                                                            04/07/20 13:59:09 PAGE    19

                                                        
00F2A4 0000             736                             DW 0x0000                                                       
                                                        
00F2A6 0000             737                             DW 0x0000                                                       
                                                        
00F2A8 1800             738                             DW 0x1800                                                       
                                                        
00F2AA 1800             739                             DW 0x1800                                                       
                                                        
00F2AC 1800             740                             DW 0x1800                                                       
                                                        
00F2AE 1800             741                             DW 0x1800                                                       
                                                        
00F2B0 0000             742                             DW 0x0000                                                       
                                                        
00F2B2 0001             743                             DW 0x0001                                                       
                                                        
00F2B4 0000             744                             DW 0x0000                                                       
                                                        
00F2B6 0001             745                             DW 0x0001                                                       
                                                        
00F2B8 0000             746                             DW 0x0000                                                       
                                                        
00F2BA 0001             747                             DW 0x0001                                                       
                                                        
00F2BC 0000             748                             DW 0x0000                                                       
                                                        
00F2BE 0721             749                             DW 0x0721                                                       
                                                        
                        750     
00F2C0 0000             751                             DW 0x0000                                                       
                                                        
00F2C2 0000             752                             DW 0x0000                                                       
                                                        
00F2C4 0000             753                             DW 0x0000                                                       
                                                        
00F2C6 0000             754                             DW 0x0000                                                       
                                                        
00F2C8 0000             755                             DW 0x0000                                                       
                                                        
00F2CA 0000             756                             DW 0x0000                                                       
                                                        
00F2CC 0000             757                             DW 0x0000                                                       
                                                        
00F2CE 0000             758                             DW 0x0000                                                       
                                                        
00F2D0 0000             759                             DW 0x0000                                                       
                                                        
00F2D2 0000             760                             DW 0x0000                                                       
                                                        
                        761     
00F2D4 0000             762                             DW 0x0000                                            
00F2D6 0000             763                             DW 0x0000                                            
00F2D8 0000             764                             DW 0x0000                                            
00F2DA 0000             765                             DW 0x0000                                            
00F2DC 0000             766                             DW 0x0000                                            
00F2DE 0000             767                             DW 0x0000                                            
00F2E0 0000             768                             DW 0x0000                                            
00F2E2 0000             769                             DW 0x0000                                            
00F2E4 0000             770                             DW 0x0000                                            
00F2E6 0000             771                             DW 0x0000                                            
00F2E8 0000             772                             DW 0x0000                                            
00F2EA 0000             773                             DW 0x0000                                            
AX51 MACRO ASSEMBLER  FLASHTABLE                                                            04/07/20 13:59:09 PAGE    20

00F2EC 0000             774                             DW 0x0000                                            
00F2EE 0000             775                             DW 0x0000                                            
00F2F0 0000             776                             DW 0x0000                                            
00F2F2 0000             777                             DW 0x0000                                            
00F2F4 0000             778                             DW 0x0000                                            
00F2F6 0000             779                             DW 0x0000                                            
00F2F8 0000             780                             DW 0x0000                                            
00F2FA 0000             781                             DW 0x0000                                            
00F2FC 0000             782                             DW 0x0000                                            
                        783     
                        784     
                        785     
                        786     
00F400                  787             CSEG    AT      0xF400
                        788             PUBLIC          FS_MA38434_P8A_Table
00F400                  789     FS_MA38434_P8A_Table:
00F400 00               790                             DB 0x00                                                         
                                                        
00F401 00               791                             DB 0x00                                                         
                                                        
00F402 00               792                             DB 0x00                                                         
                                                        
00F403 A8               793                             DB 0xA8                                                         
                                                        
00F404 09               794                             DB 0x09                                                         
                                                        
00F405 00               795                             DB 0x00                                                         
                                                        
00F406 00               796                             DB 0x00                                                         
                                                        
00F407 00               797                             DB 0x00                                                         
                                                        
00F408 0F               798                             DB 0x0F                                                         
                                                        
00F409 20               799                             DB 0x20                                                         
                                                        
00F40A 38               800                             DB 0x38                                                         
                                                        
00F40B 0D               801                             DB 0x0D                                                         
                                                        
00F40C 00               802                             DB 0x00                                                         
                                                        
00F40D 00               803                             DB 0x00                                                         
                                                        
00F40E 35               804                             DB 0x35                                                         
                                                        
00F40F 00               805                             DB 0x00                                                         
                                                        
00F410 00               806                             DB 0x00                                                         
                                                        
00F411 25               807                             DB 0x25                                                         
                                                        
00F412 00               808                             DB 0x00                                                         
                                                        
00F413 00               809                             DB 0x00                                                         
                                                        
00F414 1D               810                             DB 0x1D                                                         
                                                        
00F415 04               811                             DB 0x04                                                         
                                                        
00F416 E4               812                             DB 0xE4                                                         
                                                        
00F417 00               813                             DB 0x00                                                         
AX51 MACRO ASSEMBLER  FLASHTABLE                                                            04/07/20 13:59:09 PAGE    21

                                                        
00F418 00               814                             DB 0x00                                                         
                                                        
00F419 A8               815                             DB 0xA8                                                         
                                                        
00F41A 09               816                             DB 0x09                                                         
                                                        
00F41B 00               817                             DB 0x00                                                         
                                                        
00F41C 00               818                             DB 0x00                                                         
                                                        
00F41D 00               819                             DB 0x00                                                         
                                                        
00F41E 0F               820                             DB 0x0F                                                         
                                                        
00F41F 20               821                             DB 0x20                                                         
                                                        
00F420 38               822                             DB 0x38                                                         
                                                        
00F421 0D               823                             DB 0x0D                                                         
                                                        
00F422 00               824                             DB 0x00                                                         
                                                        
00F423 00               825                             DB 0x00                                                         
                                                        
00F424 35               826                             DB 0x35                                                         
                                                        
00F425 00               827                             DB 0x00                                                         
                                                        
00F426 00               828                             DB 0x00                                                         
                                                        
00F427 25               829                             DB 0x25                                                         
                                                        
00F428 00               830                             DB 0x00                                                         
                                                        
00F429 00               831                             DB 0x00                                                         
                                                        
00F42A 1D               832                             DB 0x1D                                                         
                                                        
00F42B 04               833                             DB 0x04                                                         
                                                        
00F42C E4               834                             DB 0xE4                                                         
                                                        
00F42D 00               835                             DB 0x00                                                         
                                                        
00F42E 00               836                             DB 0x00                                                         
                                                        
00F42F A8               837                             DB 0xA8                                                         
                                                        
00F430 09               838                             DB 0x09                                                         
                                                        
00F431 00               839                             DB 0x00                                                         
                                                        
00F432 00               840                             DB 0x00                                                         
                                                        
00F433 00               841                             DB 0x00                                                         
                                                        
00F434 0F               842                             DB 0x0F                                                         
                                                        
00F435 20               843                             DB 0x20                                                         
                                                        
00F436 38               844                             DB 0x38                                                         
                                                        
AX51 MACRO ASSEMBLER  FLASHTABLE                                                            04/07/20 13:59:09 PAGE    22

00F437 0D               845                             DB 0x0D                                                         
                                                        
00F438 00               846                             DB 0x00                                                         
                                                        
00F439 00               847                             DB 0x00                                                         
                                                        
00F43A 35               848                             DB 0x35                                                         
                                                        
00F43B 00               849                             DB 0x00                                                         
                                                        
00F43C 00               850                             DB 0x00                                                         
                                                        
00F43D 25               851                             DB 0x25                                                         
                                                        
00F43E 00               852                             DB 0x00                                                         
                                                        
00F43F 00               853                             DB 0x00                                                         
                                                        
00F440 1D               854                             DB 0x1D                                                         
                                                        
00F441 04               855                             DB 0x04                                                         
                                                        
00F442 E4               856                             DB 0xE4                                                         
                                                        
00F443 00               857                             DB 0x00                                                         
                                                        
00F444 00               858                             DB 0x00                                                         
                                                        
00F445 A8               859                             DB 0xA8                                                         
                                                        
00F446 09               860                             DB 0x09                                                         
                                                        
00F447 00               861                             DB 0x00                                                         
                                                        
00F448 00               862                             DB 0x00                                                         
                                                        
00F449 00               863                             DB 0x00                                                         
                                                        
00F44A 0F               864                             DB 0x0F                                                         
                                                        
00F44B 20               865                             DB 0x20                                                         
                                                        
00F44C 38               866                             DB 0x38                                                         
                                                        
00F44D 0D               867                             DB 0x0D                                                         
                                                        
00F44E 00               868                             DB 0x00                                                         
                                                        
00F44F 00               869                             DB 0x00                                                         
                                                        
00F450 35               870                             DB 0x35                                                         
                                                        
00F451 00               871                             DB 0x00                                                         
                                                        
00F452 00               872                             DB 0x00                                                         
                                                        
00F453 25               873                             DB 0x25                                                         
                                                        
00F454 00               874                             DB 0x00                                                         
                                                        
00F455 00               875                             DB 0x00                                                         
                                                        
00F456 1D               876                             DB 0x1D                                                         
AX51 MACRO ASSEMBLER  FLASHTABLE                                                            04/07/20 13:59:09 PAGE    23

                                                        
00F457 04               877                             DB 0x04                                                         
                                                        
00F458 E4               878                             DB 0xE4                                                         
                                                        
00F459 00               879                             DB 0x00                                                         
                                                        
00F45A 00               880                             DB 0x00                                                         
                                                        
00F45B 00               881                             DB 0x00                                                         
                                                        
00F45C 3F               882                             DB 0x3F                                                         
                                                        
00F45D 00               883                             DB 0x00                                                         
                                                        
00F45E 00               884                             DB 0x00                                                         
                                                        
00F45F 3F               885                             DB 0x3F                                                         
                                                        
00F460 00               886                             DB 0x00                                                         
                                                        
00F461 00               887                             DB 0x00                                                         
                                                        
00F462 F3               888                             DB 0xF3                                                         
                                                        
00F463 00               889                             DB 0x00                                                         
                                                        
00F464 00               890                             DB 0x00                                                         
                                                        
00F465 03               891                             DB 0x03                                                         
                                                        
00F466 00               892                             DB 0x00                                                         
                                                        
00F467 0C               893                             DB 0x0C                                                         
                                                        
00F468 03               894                             DB 0x03                                                         
                                                        
00F469 00               895                             DB 0x00                                                         
                                                        
00F46A 0C               896                             DB 0x0C                                                         
                                                        
00F46B 03               897                             DB 0x03                                                         
                                                        
00F46C 00               898                             DB 0x00                                                         
                                                        
00F46D 0C               899                             DB 0x0C                                                         
                                                        
00F46E 00               900                             DB 0x00                                                         
                                                        
00F46F 00               901                             DB 0x00                                                         
                                                        
00F470 00000000         902                             DB 0x00,0x00,0x00,0x00,0x00,0x00,0x00,0x00               
00F474 00000000                 
00F478 00000000         903                             DB 0x00,0x00,0x00,0x00,0x00,0x00,0x00,0x00               
00F47C 00000000                 
                        904     
                        905     
                        906     
                        907     
00F480 00               908                             DB 0x00                                                         
                                                        
00F481 00               909                             DB 0x00                                                         
                                                        
AX51 MACRO ASSEMBLER  FLASHTABLE                                                            04/07/20 13:59:09 PAGE    24

00F482 00               910                             DB 0x00                                                         
                                                        
00F483 A8               911                             DB 0xA8                                                         
                                                        
00F484 09               912                             DB 0x09                                                         
                                                        
00F485 00               913                             DB 0x00                                                         
                                                        
00F486 00               914                             DB 0x00                                                         
                                                        
00F487 00               915                             DB 0x00                                                         
                                                        
00F488 0F               916                             DB 0x0F                                                         
                                                        
00F489 20               917                             DB 0x20                                                         
                                                        
00F48A 38               918                             DB 0x38                                                         
                                                        
00F48B 0D               919                             DB 0x0D                                                         
                                                        
00F48C 00               920                             DB 0x00                                                         
                                                        
00F48D 00               921                             DB 0x00                                                         
                                                        
00F48E 35               922                             DB 0x35                                                         
                                                        
00F48F 00               923                             DB 0x00                                                         
                                                        
00F490 00               924                             DB 0x00                                                         
                                                        
00F491 25               925                             DB 0x25                                                         
                                                        
00F492 00               926                             DB 0x00                                                         
                                                        
00F493 00               927                             DB 0x00                                                         
                                                        
00F494 1D               928                             DB 0x1D                                                         
                                                        
00F495 04               929                             DB 0x04                                                         
                                                        
00F496 E4               930                             DB 0xE4                                                         
                                                        
00F497 00               931                             DB 0x00                                                         
                                                        
00F498 00               932                             DB 0x00                                                         
                                                        
00F499 A8               933                             DB 0xA8                                                         
                                                        
00F49A 09               934                             DB 0x09                                                         
                                                        
00F49B 00               935                             DB 0x00                                                         
                                                        
00F49C 00               936                             DB 0x00                                                         
                                                        
00F49D 00               937                             DB 0x00                                                         
                                                        
00F49E 0F               938                             DB 0x0F                                                         
                                                        
00F49F 20               939                             DB 0x20                                                         
                                                        
00F4A0 38               940                             DB 0x38                                                         
                                                        
00F4A1 0D               941                             DB 0x0D                                                         
AX51 MACRO ASSEMBLER  FLASHTABLE                                                            04/07/20 13:59:09 PAGE    25

                                                        
00F4A2 00               942                             DB 0x00                                                         
                                                        
00F4A3 00               943                             DB 0x00                                                         
                                                        
00F4A4 35               944                             DB 0x35                                                         
                                                        
00F4A5 00               945                             DB 0x00                                                         
                                                        
00F4A6 00               946                             DB 0x00                                                         
                                                        
00F4A7 25               947                             DB 0x25                                                         
                                                        
00F4A8 00               948                             DB 0x00                                                         
                                                        
00F4A9 00               949                             DB 0x00                                                         
                                                        
00F4AA 1D               950                             DB 0x1D                                                         
                                                        
00F4AB 04               951                             DB 0x04                                                         
                                                        
00F4AC E4               952                             DB 0xE4                                                         
                                                        
00F4AD 00               953                             DB 0x00                                                         
                                                        
00F4AE 00               954                             DB 0x00                                                         
                                                        
00F4AF A8               955                             DB 0xA8                                                         
                                                        
00F4B0 09               956                             DB 0x09                                                         
                                                        
00F4B1 00               957                             DB 0x00                                                         
                                                        
00F4B2 00               958                             DB 0x00                                                         
                                                        
00F4B3 00               959                             DB 0x00                                                         
                                                        
00F4B4 0F               960                             DB 0x0F                                                         
                                                        
00F4B5 20               961                             DB 0x20                                                         
                                                        
00F4B6 38               962                             DB 0x38                                                         
                                                        
00F4B7 0D               963                             DB 0x0D                                                         
                                                        
00F4B8 00               964                             DB 0x00                                                         
                                                        
00F4B9 00               965                             DB 0x00                                                         
                                                        
00F4BA 35               966                             DB 0x35                                                         
                                                        
00F4BB 00               967                             DB 0x00                                                         
                                                        
00F4BC 00               968                             DB 0x00                                                         
                                                        
00F4BD 25               969                             DB 0x25                                                         
                                                        
00F4BE 00               970                             DB 0x00                                                         
                                                        
00F4BF 00               971                             DB 0x00                                                         
                                                        
00F4C0 1D               972                             DB 0x1D                                                         
                                                        
AX51 MACRO ASSEMBLER  FLASHTABLE                                                            04/07/20 13:59:09 PAGE    26

00F4C1 04               973                             DB 0x04                                                         
                                                        
00F4C2 E4               974                             DB 0xE4                                                         
                                                        
00F4C3 00               975                             DB 0x00                                                         
                                                        
00F4C4 00               976                             DB 0x00                                                         
                                                        
00F4C5 A8               977                             DB 0xA8                                                         
                                                        
00F4C6 09               978                             DB 0x09                                                         
                                                        
00F4C7 00               979                             DB 0x00                                                         
                                                        
00F4C8 00               980                             DB 0x00                                                         
                                                        
00F4C9 00               981                             DB 0x00                                                         
                                                        
00F4CA 0F               982                             DB 0x0F                                                         
                                                        
00F4CB 20               983                             DB 0x20                                                         
                                                        
00F4CC 38               984                             DB 0x38                                                         
                                                        
00F4CD 0D               985                             DB 0x0D                                                         
                                                        
00F4CE 00               986                             DB 0x00                                                         
                                                        
00F4CF 00               987                             DB 0x00                                                         
                                                        
00F4D0 35               988                             DB 0x35                                                         
                                                        
00F4D1 00               989                             DB 0x00                                                         
                                                        
00F4D2 00               990                             DB 0x00                                                         
                                                        
00F4D3 25               991                             DB 0x25                                                         
                                                        
00F4D4 00               992                             DB 0x00                                                         
                                                        
00F4D5 00               993                             DB 0x00                                                         
                                                        
00F4D6 1D               994                             DB 0x1D                                                         
                                                        
00F4D7 04               995                             DB 0x04                                                         
                                                        
00F4D8 E4               996                             DB 0xE4                                                         
                                                        
00F4D9 00               997                             DB 0x00                                                         
                                                        
00F4DA 00               998                             DB 0x00                                                         
                                                        
00F4DB 00               999                             DB 0x00                                                         
                                                        
00F4DC 3F              1000                             DB 0x3F                                                         
                                                        
00F4DD 00              1001                             DB 0x00                                                         
                                                        
00F4DE 00              1002                             DB 0x00                                                         
                                                        
00F4DF 3F              1003                             DB 0x3F                                                         
                                                        
00F4E0 00              1004                             DB 0x00                                                         
AX51 MACRO ASSEMBLER  FLASHTABLE                                                            04/07/20 13:59:09 PAGE    27

                                                        
00F4E1 00              1005                             DB 0x00                                                         
                                                        
00F4E2 F3              1006                             DB 0xF3                                                         
                                                        
00F4E3 00              1007                             DB 0x00                                                         
                                                        
00F4E4 00              1008                             DB 0x00                                                         
                                                        
00F4E5 03              1009                             DB 0x03                                                         
                                                        
00F4E6 00              1010                             DB 0x00                                                         
                                                        
00F4E7 0C              1011                             DB 0x0C                                                         
                                                        
00F4E8 03              1012                             DB 0x03                                                         
                                                        
00F4E9 00              1013                             DB 0x00                                                         
                                                        
00F4EA 0C              1014                             DB 0x0C                                                         
                                                        
00F4EB 03              1015                             DB 0x03                                                         
                                                        
00F4EC 00              1016                             DB 0x00                                                         
                                                        
00F4ED 0C              1017                             DB 0x0C                                                         
                                                        
00F4EE 00              1018                             DB 0x00                                                         
                                                        
00F4EF 00              1019                             DB 0x00                                                         
                                                        
00F4F0 00000000        1020                             DB 0x00,0x00,0x00,0x00,0x00,0x00,0x00,0x00               
00F4F4 00000000                 
00F4F8 00000000        1021                             DB 0x00,0x00,0x00,0x00,0x00,0x00,0x00,0x00               
00F4FC 00000000                 
                       1022     
                       1023     
                       1024     
00F800                 1025             CSEG    AT      0xF800
                       1026             PUBLIC          FS_59281PHY1_LS_P8C_Table
00F800                 1027     FS_59281PHY1_LS_P8C_Table:
00F800 1A00            1028                             DW 0x1A00                                                       
                                                        
00F802 0001            1029                             DW 0x0001                                                       
                                                        
00F804 FFF4            1030                             DW 0xFFF4                                                       
                                                        
00F806 FFF4            1031                             DW 0xFFF4                                                       
                                                        
00F808 FFF4            1032                             DW 0xFFF4                                                       
                                                        
00F80A FFF4            1033                             DW 0xFFF4                                                       
                                                        
00F80C 0080            1034                             DW 0x0080                                                       
                                                        
00F80E 0080            1035                             DW 0x0080                                                       
                                                        
00F810 0080            1036                             DW 0x0080                                                       
                                                        
00F812 0080            1037                             DW 0x0080                                                       
                                                        
00F814 0000            1038                             DW 0x0000                                                       
                                                        
AX51 MACRO ASSEMBLER  FLASHTABLE                                                            04/07/20 13:59:09 PAGE    28

00F816 0000            1039                             DW 0x0000                                                       
                                                        
00F818 0000            1040                             DW 0x0000                                                       
                                                        
00F81A 0000            1041                             DW 0x0000                                                       
                                                        
00F81C 0000            1042                             DW 0x0000                                                       
                                                        
00F81E 0000            1043                             DW 0x0000                                                       
                                                        
00F820 0000            1044                             DW 0x0000                                                       
                                                        
00F822 0000            1045                             DW 0x0000                                                       
                                                        
00F824 0000            1046                             DW 0x0000                                                       
                                                        
00F826 0000            1047                             DW 0x0000                                                       
                                                        
00F828 0000            1048                             DW 0x0000                                                       
                                                        
00F82A 0000            1049                             DW 0x0000                                                       
                                                        
00F82C 1000            1050                             DW 0x1000                                                       
                                                        
00F82E 1000            1051                             DW 0x1000                                                       
                                                        
00F830 1000            1052                             DW 0x1000                                                       
                                                        
00F832 1000            1053                             DW 0x1000                                                       
                                                        
00F834 0010            1054                             DW 0x0010                                                       
                                                        
00F836 0011            1055                             DW 0x0011                                                       
                                                        
00F838 0010            1056                             DW 0x0010                                                       
                                                        
00F83A 0011            1057                             DW 0x0011                                                       
                                                        
00F83C 0030            1058                             DW 0x0030                                                       
                                                        
00F83E 0030            1059                             DW 0x0030                                                       
                                                        
00F840 0020            1060                             DW 0x0020                                                       
                                                        
00F842 0030            1061                             DW 0x0030                                                       
                                                        
00F844 8000            1062                             DW 0x8000                                                       
                                                        
00F846 0004            1063                             DW 0x0004                                                       
                                                        
00F848 8004            1064                             DW 0x8004                                                       
                                                        
00F84A 0000            1065                             DW 0x0000                                                       
                                                        
00F84C 8000            1066                             DW 0x8000                                                       
                                                        
00F84E 0004            1067                             DW 0x0004                                                       
                                                        
00F850 8004            1068                             DW 0x8004                                                       
                                                        
00F852 0000            1069                             DW 0x0000                                                       
                                                        
                       1070     
AX51 MACRO ASSEMBLER  FLASHTABLE                                                            04/07/20 13:59:09 PAGE    29

00F854 01F1            1071                             DW 0x01F1                                            
00F856 01F1            1072                             DW 0x01F1                                            
00F858 01F1            1073                             DW 0x01F1                                            
00F85A 01F1            1074                             DW 0x01F1                                            
                       1075     
00F85C 0000            1076                             DW 0x0000                                            
00F85E 0000            1077                             DW 0x0000                                            
00F860 0000            1078                             DW 0x0000                                            
00F862 0000            1079                             DW 0x0000                                            
00F864 0000            1080                             DW 0x0000                                            
00F866 0000            1081                             DW 0x0000                                            
00F868 0000            1082                             DW 0x0000                                            
00F86A 0000            1083                             DW 0x0000                                            
00F86C 0000            1084                             DW 0x0000                                            
00F86E 0000            1085                             DW 0x0000                                            
00F870 0000            1086                             DW 0x0000                                            
00F872 0000            1087                             DW 0x0000                                            
00F874 0000            1088                             DW 0x0000                                            
00F876 0000            1089                             DW 0x0000                                            
00F878 0000            1090                             DW 0x0000                                            
00F87A 0000            1091                             DW 0x0000                                            
00F87C 0000            1092                             DW 0x0000                                            
00F87E 0000            1093                             DW 0x0000                                            
                       1094     
                       1095     
                       1096     
00F880 FFEC            1097                             DW 0xFFEC                                                       
                                                        
00F882 FFEC            1098                             DW 0xFFEC                                                       
                                                        
00F884 FFEC            1099                             DW 0xFFEC                                                       
                                                        
00F886 FFEC            1100                             DW 0xFFEC                                                       
                                                        
00F888 0094            1101                             DW 0x0094                                                       
                                                        
00F88A 0094            1102                             DW 0x0094                                                       
                                                        
00F88C 0094            1103                             DW 0x0094                                                       
                                                        
00F88E 0094            1104                             DW 0x0094                                                       
                                                        
00F890 0000            1105                             DW 0x0000                                                       
                                                        
00F892 0000            1106                             DW 0x0000                                                       
                                                        
00F894 0000            1107                             DW 0x0000                                                       
                                                        
00F896 0000            1108                             DW 0x0000                                                       
                                                        
00F898 0000            1109                             DW 0x0000                                                       
                                                        
00F89A 0000            1110                             DW 0x0000                                                       
                                                        
00F89C 0000            1111                             DW 0x0000                                                       
                                                        
00F89E 0000            1112                             DW 0x0000                                                       
                                                        
00F8A0 0000            1113                             DW 0x0000                                                       
                                                        
00F8A2 0000            1114                             DW 0x0000                                                       
                                                        
00F8A4 0000            1115                             DW 0x0000                                                       
AX51 MACRO ASSEMBLER  FLASHTABLE                                                            04/07/20 13:59:09 PAGE    30

                                                        
00F8A6 0000            1116                             DW 0x0000                                                       
                                                        
00F8A8 1800            1117                             DW 0x1800                                                       
                                                        
00F8AA 1800            1118                             DW 0x1800                                                       
                                                        
00F8AC 1800            1119                             DW 0x1800                                                       
                                                        
00F8AE 1800            1120                             DW 0x1800                                                       
                                                        
00F8B0 0000            1121                             DW 0x0000                                                       
                                                        
00F8B2 0001            1122                             DW 0x0001                                                       
                                                        
00F8B4 0000            1123                             DW 0x0000                                                       
                                                        
00F8B6 0001            1124                             DW 0x0001                                                       
                                                        
00F8B8 0000            1125                             DW 0x0000                                                       
                                                        
00F8BA 0001            1126                             DW 0x0001                                                       
                                                        
00F8BC 0000            1127                             DW 0x0000                                                       
                                                        
00F8BE 0721            1128                             DW 0x0721                                                       
                                                        
                       1129     
00F8C0 0000            1130                             DW 0x0000                                                       
                                                        
00F8C2 0000            1131                             DW 0x0000                                                       
                                                        
00F8C4 0000            1132                             DW 0x0000                                                       
                                                        
00F8C6 0000            1133                             DW 0x0000                                                       
                                                        
                       1134     
00F8C8 0000            1135                             DW 0x0000                                                       
                                                        
00F8CA 0000            1136                             DW 0x0000                                                       
                                                        
00F8CC 0000            1137                             DW 0x0000                                                       
                                                        
00F8CE 0000            1138                             DW 0x0000                                                       
                                                        
00F8D0 0000            1139                             DW 0x0000                                                       
                                                        
00F8D2 0000            1140                             DW 0x0000                                                       
                                                        
                       1141     
00F8D4 0000            1142                             DW 0x0000                                            
00F8D6 0000            1143                             DW 0x0000                                            
00F8D8 0000            1144                             DW 0x0000                                            
00F8DA 0000            1145                             DW 0x0000                                            
00F8DC 0000            1146                             DW 0x0000                                            
00F8DE 0000            1147                             DW 0x0000                                            
00F8E0 0000            1148                             DW 0x0000                                            
00F8E2 0000            1149                             DW 0x0000                                            
00F8E4 0000            1150                             DW 0x0000                                            
00F8E6 0000            1151                             DW 0x0000                                            
00F8E8 0000            1152                             DW 0x0000                                            
00F8EA 0000            1153                             DW 0x0000                                            
00F8EC 0000            1154                             DW 0x0000                                            
AX51 MACRO ASSEMBLER  FLASHTABLE                                                            04/07/20 13:59:09 PAGE    31

00F8EE 0000            1155                             DW 0x0000                                            
00F8F0 0000            1156                             DW 0x0000                                            
00F8F2 0000            1157                             DW 0x0000                                            
00F8F4 0000            1158                             DW 0x0000                                            
00F8F6 0000            1159                             DW 0x0000                                            
00F8F8 0000            1160                             DW 0x0000                                            
00F8FA 0000            1161                             DW 0x0000                                            
00F8FC 0000            1162                             DW 0x0000                                            
                       1163     
                       1164     
                       1165         END
AX51 MACRO ASSEMBLER  FLASHTABLE                                                            04/07/20 13:59:09 PAGE    32

SYMBOL TABLE LISTING
------ ----- -------


N A M E                    T Y P E  V A L U E     ATTRIBUTES

FS_59281PHY0_LS_P86_TABLE  C  ADDR  F200H     R   SEG=?CO?FLASHTABLE?6
FS_59281PHY1_LS_P8C_TABLE  C  ADDR  F800H     R   SEG=?CO?FLASHTABLE?8
FS_CALIBRATION_TABLE. . .  C  ADDR  EC00H     R   SEG=?CO?FLASHTABLE?3
FS_MA38345_P82_TABLE. . .  C  ADDR  F000H     R   SEG=?CO?FLASHTABLE?5
FS_MA38434_P8A_TABLE. . .  C  ADDR  F400H     R   SEG=?CO?FLASHTABLE?7
FS_MSA_OPTION_TABLE . . .  C  ADDR  EE00H     R   SEG=?CO?FLASHTABLE?4
FS_QSFPDD_A0_TABLE. . . .  C  ADDR  E800H     R   SEG=?CO?FLASHTABLE?1
FS_QSFPDD_P1_TABLE. . . .  C  ADDR  EA00H     R   SEG=?CO?FLASHTABLE?2


REGISTER BANK(S) USED: 0 


ASSEMBLY COMPLETE.  0 WARNING(S), 0 ERROR(S).
