C51 COMPILER V9.53.0.0   MASTER_I2C_GPIO                                                   12/31/2019 17:41:00 PAGE 1   


C51 COMPILER V9.53.0.0, COMPILATION OF MODULE MASTER_I2C_GPIO
OBJECT MODULE PLACED IN .\EFM8LB\Master_I2C_GPIO.OBJ
COMPILER INVOKED BY: c:\SiliconLabs\SimplicityStudio\v4\developer\toolchains\keil_8051\9.53\BIN\C51.exe D:\Luxshare_OET\
                    -公司專案_FW\OSFP_400G_DSP\FW\V0300_CMIS30\OET_OSFP_400G_DSP_TL_MACOM_CMIS30\EFM8LB\Master_I2C_GPIO.c OMF2 SMALL DEBUG OB
                    -JECTEXTEND ROM(LARGE) WARNINGLEVEL(2) FLOATFUZZY(3) OPTIMIZE(8,SPEED) DEFINE(DEBUG=1) INTVECTOR(0X0000) INTPROMOTE INCDI
                    -R(D:\Luxshare_OET\公司專案_FW\OSFP_400G_DSP\FW\V0300_CMIS30\OET_OSFP_400G_DSP_TL_MACOM_CMIS30\inc;C:/SiliconLabs/Simplic
                    -ityStudio/v4/developer/sdks/8051/v4.0.7//Device/shared/si8051base;C:/SiliconLabs/SimplicityStudio/v4/developer/sdks/8051
                    -/v4.0.7//Device/EFM8LB1/inc) PRINT(.\EFM8LB\Master_I2C_GPIO.lst) COND PAGEWIDTH(120) PAGELENGTH(65) OBJECT(.\EFM8LB\Mast
                    -er_I2C_GPIO.OBJ)

line level    source

   1          /*
   2           * Master_I2C_GPIO.c
   3           *
   4           *  Created on: 2019年6月19日
   5           *      Author: Ivan_Lin
   6           */
   7          
   8          
   9          #include <SI_EFM8LB1_Register_Enums.h>                  // SFR declarations
  10          #include "Master_I2C_GPIO.h"
  11          
  12          
  13          
  14          //-------------------------------------//
  15          // I2C 1
  16          //-------------------------------------//
  17          SI_SBIT( Master_SDA1 , SFR_P1, 0 );
  18          SI_SBIT( Master_SCL1 , SFR_P1, 1 );
  19          //-------------------------------------//
  20          // I2C 2
  21          //-------------------------------------//
  22          SI_SBIT( Master_SDA2 , SFR_P3, 2 );
  23          SI_SBIT( Master_SCL2 , SFR_P3, 3 );
  24          
  25          //-----------------------------------------------------------------------------------//
  26          //Delay Function
  27          //-----------------------------------------------------------------------------------//
  28          void Delay_1us(void)
  29          {
  30   1              int i ;
  31   1          for(i=0;i<2;i++);
  32   1      }
  33          
  34          void Delay_us(unsigned char time_us)
  35          {
  36   1              int i;
  37   1              for(i=0;i<time_us;i++)
  38   1                      Delay_1us();
  39   1      }
  40          
  41          void Delay_1ms(void)
  42          {
  43   1              int i ;
  44   1          for(i=0; i < 6000; i++)
  45   1              _nop_();
  46   1      }
  47          void Delay_ms(int time_ms)
  48          {
  49   1              int i;
  50   1              for(i = 0; i < time_ms; i++)
C51 COMPILER V9.53.0.0   MASTER_I2C_GPIO                                                   12/31/2019 17:41:00 PAGE 2   

  51   1                      Delay_1ms();
  52   1      }
  53          //-----------------------------------------------------------------------------------//
  54          // I2C ALL CH SDA / SCL High Low Setting
  55          //-----------------------------------------------------------------------------------//
  56          void I2C_SDA_SCL_SET(unsigned char HighLow , unsigned char I2C_CH )
  57          {
  58   1              if( I2C_CH == Master_I2C1 )
  59   1              {
  60   2                      Master_SCL1 = HighLow;
  61   2                      Master_SDA1 = HighLow;
  62   2              }
  63   1              else if( I2C_CH == Master_I2C2 )
  64   1              {
  65   2                      Master_SCL2 = HighLow;
  66   2                      Master_SDA2 = HighLow;
  67   2              }
  68   1      }
  69          void I2C_SDA_SET(unsigned char HighLow , unsigned char I2C_CH )
  70          {
  71   1              if( I2C_CH == Master_I2C1 )
  72   1                      Master_SDA1 = HighLow;
  73   1              else if( I2C_CH == Master_I2C2 )
  74   1                      Master_SDA2 = HighLow;
  75   1      }
  76          void I2C_SCL_SET(unsigned char HighLow , unsigned char I2C_CH )
  77          {
  78   1              if( I2C_CH == Master_I2C1 )
  79   1                      Master_SCL1 = HighLow;
  80   1              else if( I2C_CH == Master_I2C2 )
  81   1                      Master_SCL2 = HighLow;
  82   1      }
  83          
  84          unsigned char I2C_GET_SDA_Status( unsigned char I2C_CH )
  85          {
  86   1              unsigned char buffer;
  87   1      
  88   1              if( I2C_CH == Master_I2C1 )
  89   1                      buffer = Master_SDA1 ;
  90   1              else if( I2C_CH == Master_I2C2 )
  91   1                      buffer = Master_SDA2 ;
  92   1      
  93   1              return buffer;
  94   1      }
  95          //-----------------------------------------------------------------------------------//
  96          //MASTER UP I2C
  97          //-----------------------------------------------------------------------------------//
  98          void I2C_Idle(unsigned char I2C_CH)
  99          {
 100   1              // SDA = High
 101   1              // SCL = High
 102   1              I2C_SDA_SCL_SET( High , I2C_CH );
 103   1      
 104   1              Delay_us(1);
 105   1      }
 106          
 107          void I2C_Start( unsigned char I2C_CH )
 108          {
 109   1              Delay_1us();
 110   1              // SDA = Low
 111   1              I2C_SDA_SET( Low , I2C_CH );
 112   1              Delay_us(2);
 113   1      }
C51 COMPILER V9.53.0.0   MASTER_I2C_GPIO                                                   12/31/2019 17:41:00 PAGE 3   

 114          
 115          void I2C_Stop(unsigned char I2C_CH )
 116          {
 117   1              // SDA = Low
 118   1              I2C_SDA_SET( Low , I2C_CH );
 119   1              Delay_us(2);
 120   1              // SCL = High
 121   1              I2C_SCL_SET( High , I2C_CH );
 122   1              Delay_us(2);
 123   1              // SDA = High
 124   1              I2C_SDA_SET( High , I2C_CH );
 125   1              Delay_1us();
 126   1      }
 127          
 128          //-----------------------------------------------------------------------------------//
 129          // I2C Read Byte
 130          //-----------------------------------------------------------------------------------//
 131          unsigned char I2C_ReadByte(unsigned char I2C_CH)
 132          {
 133   1              bit buffer;
 134   1              char i;
 135   1              unsigned char Rec_Data=0;
 136   1      
 137   1              // SCL = Low ( Clock setting to Low )
 138   1              I2C_SCL_SET( Low , I2C_CH );
 139   1      
 140   1              Delay_1us();
 141   1              Delay_1us();
 142   1              Delay_1us();
 143   1              Delay_1us();
 144   1      
 145   1              for(i=7;i>=0;i--)
 146   1              {
 147   2                      Delay_1us();
 148   2                      // SCL = High ( Clock setting to High for Get SDA Data )
 149   2                      I2C_SCL_SET( High , I2C_CH );
 150   2      
 151   2                      Delay_1us();
 152   2                      Delay_1us();
 153   2                      // Get SDA is High or Low
 154   2                      if( I2C_CH == Master_I2C1 )
 155   2                              buffer = Master_SDA1 ;
 156   2                      else if( I2C_CH == Master_I2C2 )
 157   2                              buffer = Master_SDA2 ;
 158   2      
 159   2                      Rec_Data |= ((unsigned char)(buffer) << i);
 160   2                      //      Delay_1us();
 161   2      
 162   2                      // SCL = Low ( Clock setting to Low )
 163   2                      I2C_SCL_SET( Low , I2C_CH );
 164   2      
 165   2                      Delay_1us();
 166   2              }
 167   1              return Rec_Data;
 168   1      }
 169          //-----------------------------------------------------------------------------------//
 170          // I2C Write Byte
 171          //-----------------------------------------------------------------------------------//
 172          void I2C_WriteByte(unsigned char Reg_Data ,unsigned char I2C_CH)
 173          {
 174   1              char i;
 175   1              unsigned char Temp_Data=Reg_Data;
 176   1      
C51 COMPILER V9.53.0.0   MASTER_I2C_GPIO                                                   12/31/2019 17:41:00 PAGE 4   

 177   1              // SCL = Low ( Clock setting to Low )
 178   1              I2C_SCL_SET( Low , I2C_CH );
 179   1      
 180   1              Delay_1us();
 181   1              Delay_1us();
 182   1              Delay_1us();
 183   1              Delay_1us();
 184   1      
 185   1              for(i=7;i>=0;i--)
 186   1              {
 187   2                      Temp_Data = ((Reg_Data >> i) & 0x01);
 188   2                      if(Temp_Data)
 189   2                      {
 190   3                              // SDA = High
 191   3                              I2C_SDA_SET( High , I2C_CH );
 192   3                      }
 193   2                      else
 194   2                      {
 195   3                              // SDA = Low
 196   3                              I2C_SDA_SET( Low , I2C_CH );
 197   3                      }
 198   2                      //      Delay_1us();
 199   2                      // SCL = High ( Clock setting )
 200   2                      I2C_SCL_SET( High , I2C_CH );
 201   2      
 202   2                      Delay_1us();
 203   2                      Delay_1us();
 204   2      
 205   2                      // SCL = Low ( Clock setting to Low )
 206   2                      I2C_SCL_SET( Low , I2C_CH );
 207   2      
 208   2                      Delay_1us();
 209   2              }
 210   1      }
 211          
 212          //-------------------------------------------------------//
 213          // UP I2C nACK / ACK
 214          // Master_SDA_UP
 215          // Master_SCL_UP
 216          // TX CH4 - CH7 MAOM38053 UP AFSI-N74C4S2
 217          // RX CH0 - CH3 MASC38040 UP AFSI-R74C4S1
 218          //-------------------------------------------------------//
 219          void I2C_nACK_Master(unsigned char I2C_CH)
 220          {
 221   1              Delay_1us();
 222   1              // SDA = High
 223   1              I2C_SDA_SET( High , I2C_CH );
 224   1              Delay_1us();
 225   1              // SCL = High
 226   1              I2C_SCL_SET( High , I2C_CH );
 227   1              Delay_1us();
 228   1              Delay_1us();
 229   1              // SCL = Low
 230   1              I2C_SCL_SET( Low , I2C_CH );
 231   1              Delay_1us();
 232   1              // SDA = Low
 233   1              I2C_SDA_SET( Low , I2C_CH );
 234   1              Delay_1us();
 235   1      }
 236          
 237          void I2C_ACK_Slave(unsigned char I2C_CH)
 238          {
 239   1              Delay_1us();
C51 COMPILER V9.53.0.0   MASTER_I2C_GPIO                                                   12/31/2019 17:41:00 PAGE 5   

 240   1              // SCL = High
 241   1              I2C_SCL_SET( High , I2C_CH );
 242   1              Delay_1us();
 243   1              Delay_1us();
 244   1      
 245   1              if( I2C_GET_SDA_Status( I2C_CH ) )
 246   1              {
 247   2                      // SCL = Low
 248   2                      I2C_SCL_SET( Low , I2C_CH );
 249   2                      Delay_1us();
 250   2                      // SDA = Low
 251   2                      I2C_SDA_SET( Low , I2C_CH );
 252   2                      Delay_1us();
 253   2      
 254   2              }
 255   1              else
 256   1              {
 257   2                      // SCL = Low
 258   2                      I2C_SCL_SET( Low , I2C_CH );
 259   2                      Delay_1us();
 260   2                      // SDA = High
 261   2                      I2C_SDA_SET( High , I2C_CH );
 262   2                      Delay_1us();
 263   2      
 264   2              }
 265   1      }
 266          
 267          void I2C_MRSlave_Ack(unsigned char I2C_CH)
 268          {
 269   1              // SDA = Low
 270   1              I2C_SDA_SET( Low , I2C_CH );
 271   1              // SCL = High
 272   1              I2C_SCL_SET( High , I2C_CH );
 273   1              Delay_1us();
 274   1              Delay_1us();
 275   1              // SCL = Low
 276   1              I2C_SCL_SET( Low , I2C_CH );
 277   1              // SDA = High
 278   1              I2C_SDA_SET( High , I2C_CH );
 279   1      }
 280          
 281          
 282          void I2C_MRSlave_NAck(unsigned char I2C_CH)
 283          {
 284   1              // SDA = High
 285   1              I2C_SDA_SET( High , I2C_CH );
 286   1              // SCL = High
 287   1              I2C_SCL_SET( High , I2C_CH );
 288   1              Delay_1us();
 289   1              Delay_1us();
 290   1              // SCL = Low
 291   1              I2C_SCL_SET( Low , I2C_CH );
 292   1      }
 293          
 294          //-------------------------------------------------------//
 295          // Master I2C Read/Write Function
 296          // I2C_Idle
 297          // I2C_Start
 298          // I2C_Stop
 299          // I2C_ReadByte
 300          // I2C_WriteByte
 301          // I2C_nACK_Master
 302          // I2C_ACK_Slave
C51 COMPILER V9.53.0.0   MASTER_I2C_GPIO                                                   12/31/2019 17:41:00 PAGE 6   

 303          // I2C_MRSlave_Ack
 304          // I2C_MRSlave_NAck
 305          //-------------------------------------------------------//
 306          unsigned char Master_I2C_ReadByte(unsigned char Slave_address,unsigned char Regcommand_Address,unsigned ch
             -ar I2C_CH)
 307          {
 308   1              unsigned char Temp_Data;
 309   1              I2C_Idle(I2C_CH);
 310   1              I2C_Start(I2C_CH);
 311   1              I2C_WriteByte(Slave_address,I2C_CH);            // Write
 312   1              I2C_ACK_Slave(I2C_CH);
 313   1      
 314   1              I2C_WriteByte(Regcommand_Address,I2C_CH);
 315   1              I2C_ACK_Slave(I2C_CH);
 316   1              // SCL = High
 317   1              I2C_SCL_SET( High , I2C_CH );
 318   1              Delay_1us();
 319   1              I2C_Idle(I2C_CH);
 320   1      
 321   1              I2C_Start(I2C_CH);
 322   1              I2C_WriteByte( ( Slave_address + 1 ),I2C_CH );          // Read
 323   1              I2C_ACK_Slave(I2C_CH);
 324   1      
 325   1              Temp_Data = I2C_ReadByte(I2C_CH);
 326   1              I2C_nACK_Master(I2C_CH);
 327   1      
 328   1              I2C_Stop(I2C_CH);
 329   1              I2C_Idle(I2C_CH);
 330   1              return Temp_Data;
 331   1      }
 332          
 333          void Master_I2C_WriteByte(unsigned char Slave_address,unsigned char Regcommand_Address,unsigned char SendD
             -ata,unsigned char I2C_CH)
 334          {
 335   1              I2C_Idle(I2C_CH);
 336   1              I2C_Start(I2C_CH);
 337   1              I2C_WriteByte(Slave_address,I2C_CH);            // Write
 338   1              I2C_ACK_Slave(I2C_CH);
 339   1      
 340   1              I2C_WriteByte(Regcommand_Address,I2C_CH);
 341   1              I2C_ACK_Slave(I2C_CH);
 342   1      
 343   1              I2C_WriteByte(SendData,I2C_CH);
 344   1              I2C_ACK_Slave(I2C_CH);
 345   1              I2C_Stop(I2C_CH);
 346   1              I2C_Idle(I2C_CH);
 347   1      }
 348          
 349          unsigned int  Master_I2C_Read_Two_Byte(unsigned char Slave_address,unsigned char Regcommand_Address,unsign
             -ed char I2C_CH)
 350          {
 351   1              xdata unsigned char MSB_Vaule = 0 ;
 352   1              xdata unsigned char LSB_Vaule = 0 ;
 353   1              xdata unsigned int Temp_Data = 0 ;
 354   1      
 355   1              I2C_Idle(I2C_CH);
 356   1              I2C_Start(I2C_CH);
 357   1              I2C_WriteByte(Slave_address,I2C_CH);            // Write
 358   1              I2C_ACK_Slave(I2C_CH);
 359   1      
 360   1              I2C_WriteByte(Regcommand_Address,I2C_CH);
 361   1              I2C_ACK_Slave(I2C_CH);
 362   1      
C51 COMPILER V9.53.0.0   MASTER_I2C_GPIO                                                   12/31/2019 17:41:00 PAGE 7   

 363   1              // SCL = High
 364   1              I2C_SCL_SET( High , I2C_CH );
 365   1              Delay_1us();
 366   1              I2C_Idle(I2C_CH);
 367   1      
 368   1              I2C_Start(I2C_CH);
 369   1              I2C_WriteByte( ( Slave_address + 1 ),I2C_CH );          // Read
 370   1              I2C_ACK_Slave(I2C_CH);
 371   1      
 372   1              MSB_Vaule = I2C_ReadByte(I2C_CH);
 373   1              I2C_MRSlave_Ack(I2C_CH);
 374   1      
 375   1              LSB_Vaule = I2C_ReadByte(I2C_CH);
 376   1              I2C_nACK_Master(I2C_CH);
 377   1      
 378   1              Temp_Data = (unsigned int)( MSB_Vaule << 4 ) + LSB_Vaule ;
 379   1      
 380   1              I2C_Stop(I2C_CH);
 381   1              I2C_Idle(I2C_CH);
 382   1      
 383   1              return Temp_Data;
 384   1      }
 385          
 386          
 387          
 388          
 389          


MODULE INFORMATION:   STATIC OVERLAYABLE
   CODE SIZE        =    784    ----
   CONSTANT SIZE    =   ----    ----
   XDATA SIZE       =   ----       4
   PDATA SIZE       =   ----    ----
   DATA SIZE        =   ----      10
   IDATA SIZE       =   ----    ----
   BIT SIZE         =   ----       1
   EDATA SIZE       =   ----    ----
   HDATA SIZE       =   ----    ----
   XDATA CONST SIZE =   ----    ----
   FAR CONST SIZE   =   ----    ----
END OF MODULE INFORMATION.


C51 COMPILATION COMPLETE.  0 WARNING(S),  0 ERROR(S)
